{
  "contractName": "KYSNFT",
  "abi": [
    {
      "inputs": [
        {
          "internalType": "address",
          "name": "initialOwner",
          "type": "address"
        }
      ],
      "stateMutability": "nonpayable",
      "type": "constructor"
    },
    {
      "anonymous": false,
      "inputs": [
        {
          "indexed": true,
          "internalType": "address",
          "name": "owner",
          "type": "address"
        },
        {
          "indexed": true,
          "internalType": "address",
          "name": "approved",
          "type": "address"
        },
        {
          "indexed": true,
          "internalType": "uint256",
          "name": "tokenId",
          "type": "uint256"
        }
      ],
      "name": "Approval",
      "type": "event"
    },
    {
      "anonymous": false,
      "inputs": [
        {
          "indexed": true,
          "internalType": "address",
          "name": "owner",
          "type": "address"
        },
        {
          "indexed": true,
          "internalType": "address",
          "name": "operator",
          "type": "address"
        },
        {
          "indexed": false,
          "internalType": "bool",
          "name": "approved",
          "type": "bool"
        }
      ],
      "name": "ApprovalForAll",
      "type": "event"
    },
    {
      "anonymous": false,
      "inputs": [
        {
          "indexed": false,
          "internalType": "uint256",
          "name": "_fromTokenId",
          "type": "uint256"
        },
        {
          "indexed": false,
          "internalType": "uint256",
          "name": "_toTokenId",
          "type": "uint256"
        }
      ],
      "name": "BatchMetadataUpdate",
      "type": "event"
    },
    {
      "anonymous": false,
      "inputs": [
        {
          "indexed": false,
          "internalType": "uint256",
          "name": "_tokenId",
          "type": "uint256"
        }
      ],
      "name": "MetadataUpdate",
      "type": "event"
    },
    {
      "anonymous": false,
      "inputs": [
        {
          "indexed": true,
          "internalType": "address",
          "name": "previousOwner",
          "type": "address"
        },
        {
          "indexed": true,
          "internalType": "address",
          "name": "newOwner",
          "type": "address"
        }
      ],
      "name": "OwnershipTransferred",
      "type": "event"
    },
    {
      "anonymous": false,
      "inputs": [
        {
          "indexed": true,
          "internalType": "address",
          "name": "from",
          "type": "address"
        },
        {
          "indexed": true,
          "internalType": "address",
          "name": "to",
          "type": "address"
        },
        {
          "indexed": true,
          "internalType": "uint256",
          "name": "tokenId",
          "type": "uint256"
        }
      ],
      "name": "Transfer",
      "type": "event"
    },
    {
      "inputs": [
        {
          "internalType": "address",
          "name": "to",
          "type": "address"
        },
        {
          "internalType": "uint256",
          "name": "tokenId",
          "type": "uint256"
        }
      ],
      "name": "approve",
      "outputs": [],
      "stateMutability": "nonpayable",
      "type": "function"
    },
    {
      "inputs": [
        {
          "internalType": "address",
          "name": "owner",
          "type": "address"
        }
      ],
      "name": "balanceOf",
      "outputs": [
        {
          "internalType": "uint256",
          "name": "",
          "type": "uint256"
        }
      ],
      "stateMutability": "view",
      "type": "function",
      "constant": true
    },
    {
      "inputs": [
        {
          "internalType": "uint256",
          "name": "tokenId",
          "type": "uint256"
        }
      ],
      "name": "getApproved",
      "outputs": [
        {
          "internalType": "address",
          "name": "",
          "type": "address"
        }
      ],
      "stateMutability": "view",
      "type": "function",
      "constant": true
    },
    {
      "inputs": [
        {
          "internalType": "address",
          "name": "owner",
          "type": "address"
        },
        {
          "internalType": "address",
          "name": "operator",
          "type": "address"
        }
      ],
      "name": "isApprovedForAll",
      "outputs": [
        {
          "internalType": "bool",
          "name": "",
          "type": "bool"
        }
      ],
      "stateMutability": "view",
      "type": "function",
      "constant": true
    },
    {
      "inputs": [],
      "name": "name",
      "outputs": [
        {
          "internalType": "string",
          "name": "",
          "type": "string"
        }
      ],
      "stateMutability": "view",
      "type": "function",
      "constant": true
    },
    {
      "inputs": [],
      "name": "owner",
      "outputs": [
        {
          "internalType": "address",
          "name": "",
          "type": "address"
        }
      ],
      "stateMutability": "view",
      "type": "function",
      "constant": true
    },
    {
      "inputs": [
        {
          "internalType": "uint256",
          "name": "tokenId",
          "type": "uint256"
        }
      ],
      "name": "ownerOf",
      "outputs": [
        {
          "internalType": "address",
          "name": "",
          "type": "address"
        }
      ],
      "stateMutability": "view",
      "type": "function",
      "constant": true
    },
    {
      "inputs": [],
      "name": "renounceOwnership",
      "outputs": [],
      "stateMutability": "nonpayable",
      "type": "function"
    },
    {
      "inputs": [
        {
          "internalType": "address",
          "name": "from",
          "type": "address"
        },
        {
          "internalType": "address",
          "name": "to",
          "type": "address"
        },
        {
          "internalType": "uint256",
          "name": "tokenId",
          "type": "uint256"
        }
      ],
      "name": "safeTransferFrom",
      "outputs": [],
      "stateMutability": "nonpayable",
      "type": "function"
    },
    {
      "inputs": [
        {
          "internalType": "address",
          "name": "from",
          "type": "address"
        },
        {
          "internalType": "address",
          "name": "to",
          "type": "address"
        },
        {
          "internalType": "uint256",
          "name": "tokenId",
          "type": "uint256"
        },
        {
          "internalType": "bytes",
          "name": "data",
          "type": "bytes"
        }
      ],
      "name": "safeTransferFrom",
      "outputs": [],
      "stateMutability": "nonpayable",
      "type": "function"
    },
    {
      "inputs": [
        {
          "internalType": "address",
          "name": "operator",
          "type": "address"
        },
        {
          "internalType": "bool",
          "name": "approved",
          "type": "bool"
        }
      ],
      "name": "setApprovalForAll",
      "outputs": [],
      "stateMutability": "nonpayable",
      "type": "function"
    },
    {
      "inputs": [],
      "name": "symbol",
      "outputs": [
        {
          "internalType": "string",
          "name": "",
          "type": "string"
        }
      ],
      "stateMutability": "view",
      "type": "function",
      "constant": true
    },
    {
      "inputs": [
        {
          "internalType": "uint256",
          "name": "index",
          "type": "uint256"
        }
      ],
      "name": "tokenByIndex",
      "outputs": [
        {
          "internalType": "uint256",
          "name": "",
          "type": "uint256"
        }
      ],
      "stateMutability": "view",
      "type": "function",
      "constant": true
    },
    {
      "inputs": [
        {
          "internalType": "address",
          "name": "owner",
          "type": "address"
        },
        {
          "internalType": "uint256",
          "name": "index",
          "type": "uint256"
        }
      ],
      "name": "tokenOfOwnerByIndex",
      "outputs": [
        {
          "internalType": "uint256",
          "name": "",
          "type": "uint256"
        }
      ],
      "stateMutability": "view",
      "type": "function",
      "constant": true
    },
    {
      "inputs": [],
      "name": "totalSupply",
      "outputs": [
        {
          "internalType": "uint256",
          "name": "",
          "type": "uint256"
        }
      ],
      "stateMutability": "view",
      "type": "function",
      "constant": true
    },
    {
      "inputs": [
        {
          "internalType": "address",
          "name": "from",
          "type": "address"
        },
        {
          "internalType": "address",
          "name": "to",
          "type": "address"
        },
        {
          "internalType": "uint256",
          "name": "tokenId",
          "type": "uint256"
        }
      ],
      "name": "transferFrom",
      "outputs": [],
      "stateMutability": "nonpayable",
      "type": "function"
    },
    {
      "inputs": [
        {
          "internalType": "address",
          "name": "newOwner",
          "type": "address"
        }
      ],
      "name": "transferOwnership",
      "outputs": [],
      "stateMutability": "nonpayable",
      "type": "function"
    },
    {
      "inputs": [
        {
          "internalType": "address",
          "name": "to",
          "type": "address"
        },
        {
          "internalType": "string",
          "name": "_tokenURI",
          "type": "string"
        }
      ],
      "name": "mint",
      "outputs": [
        {
          "internalType": "uint256",
          "name": "",
          "type": "uint256"
        }
      ],
      "stateMutability": "nonpayable",
      "type": "function"
    },
    {
      "inputs": [
        {
          "internalType": "uint256",
          "name": "tokenId",
          "type": "uint256"
        }
      ],
      "name": "tokenURI",
      "outputs": [
        {
          "internalType": "string",
          "name": "",
          "type": "string"
        }
      ],
      "stateMutability": "view",
      "type": "function",
      "constant": true
    },
    {
      "inputs": [
        {
          "internalType": "address",
          "name": "owner",
          "type": "address"
        }
      ],
      "name": "tokensOfOwner",
      "outputs": [
        {
          "internalType": "uint256[]",
          "name": "",
          "type": "uint256[]"
        }
      ],
      "stateMutability": "view",
      "type": "function",
      "constant": true
    },
    {
      "inputs": [
        {
          "internalType": "bytes4",
          "name": "interfaceId",
          "type": "bytes4"
        }
      ],
      "name": "supportsInterface",
      "outputs": [
        {
          "internalType": "bool",
          "name": "",
          "type": "bool"
        }
      ],
      "stateMutability": "view",
      "type": "function",
      "constant": true
    }
  ],
  "bytecode": "0x60806040523480156200001157600080fd5b5060405162003f4938038062003f49833981810160405281019062000037919062000228565b6040518060400160405280601781526020017f496e204d7920536c6565702045617374657220456767730000000000000000008152506040518060400160405280600381526020017f494d5300000000000000000000000000000000000000000000000000000000008152508160009081620000b49190620004d4565b508060019081620000c69190620004d4565b505050620000e9620000dd620000f060201b60201c565b620000f860201b60201c565b50620005bb565b600033905090565b6000600b60009054906101000a900473ffffffffffffffffffffffffffffffffffffffff16905081600b60006101000a81548173ffffffffffffffffffffffffffffffffffffffff021916908373ffffffffffffffffffffffffffffffffffffffff1602179055508173ffffffffffffffffffffffffffffffffffffffff168173ffffffffffffffffffffffffffffffffffffffff167f8be0079c531659141344cd1fd0a4f28419497f9722a3daafe3b4186f6b6457e060405160405180910390a35050565b600080fd5b600073ffffffffffffffffffffffffffffffffffffffff82169050919050565b6000620001f082620001c3565b9050919050565b6200020281620001e3565b81146200020e57600080fd5b50565b6000815190506200022281620001f7565b92915050565b600060208284031215620002415762000240620001be565b5b6000620002518482850162000211565b91505092915050565b600081519050919050565b7f4e487b7100000000000000000000000000000000000000000000000000000000600052604160045260246000fd5b7f4e487b7100000000000000000000000000000000000000000000000000000000600052602260045260246000fd5b60006002820490506001821680620002dc57607f821691505b602082108103620002f257620002f162000294565b5b50919050565b60008190508160005260206000209050919050565b60006020601f8301049050919050565b600082821b905092915050565b6000600883026200035c7fffffffffffffffffffffffffffffffffffffffffffffffffffffffffffffffff826200031d565b6200036886836200031d565b95508019841693508086168417925050509392505050565b6000819050919050565b6000819050919050565b6000620003b5620003af620003a98462000380565b6200038a565b62000380565b9050919050565b6000819050919050565b620003d18362000394565b620003e9620003e082620003bc565b8484546200032a565b825550505050565b600090565b62000400620003f1565b6200040d818484620003c6565b505050565b5b81811015620004355762000429600082620003f6565b60018101905062000413565b5050565b601f82111562000484576200044e81620002f8565b62000459846200030d565b8101602085101562000469578190505b6200048162000478856200030d565b83018262000412565b50505b505050565b600082821c905092915050565b6000620004a96000198460080262000489565b1980831691505092915050565b6000620004c4838362000496565b9150826002028217905092915050565b620004df826200025a565b67ffffffffffffffff811115620004fb57620004fa62000265565b5b620005078254620002c3565b6200051482828562000439565b600060209050601f8311600181146200054c576000841562000537578287015190505b620005438582620004b6565b865550620005b3565b601f1984166200055c86620002f8565b60005b8281101562000586578489015182556001820191506020850194506020810190506200055f565b86831015620005a65784890151620005a2601f89168262000496565b8355505b6001600288020188555050505b505050505050565b61397e80620005cb6000396000f3fe608060405234801561001057600080fd5b50600436106101375760003560e01c806370a08231116100b8578063a22cb4651161007c578063a22cb46514610362578063b88d4fde1461037e578063c87b56dd1461039a578063d0def521146103ca578063e985e9c5146103fa578063f2fde38b1461042a57610137565b806370a08231146102bc578063715018a6146102ec5780638462151c146102f65780638da5cb5b1461032657806395d89b411461034457610137565b806323b872dd116100ff57806323b872dd146101f45780632f745c591461021057806342842e0e146102405780634f6ccce71461025c5780636352211e1461028c57610137565b806301ffc9a71461013c57806306fdde031461016c578063081812fc1461018a578063095ea7b3146101ba57806318160ddd146101d6575b600080fd5b610156600480360381019061015191906123d0565b610446565b6040516101639190612418565b60405180910390f35b610174610458565b60405161018191906124c3565b60405180910390f35b6101a4600480360381019061019f919061251b565b6104ea565b6040516101b19190612589565b60405180910390f35b6101d460048036038101906101cf91906125d0565b610530565b005b6101de610647565b6040516101eb919061261f565b60405180910390f35b61020e6004803603810190610209919061263a565b610654565b005b61022a600480360381019061022591906125d0565b6106b4565b604051610237919061261f565b60405180910390f35b61025a6004803603810190610255919061263a565b610759565b005b6102766004803603810190610271919061251b565b610779565b604051610283919061261f565b60405180910390f35b6102a660048036038101906102a1919061251b565b6107ea565b6040516102b39190612589565b60405180910390f35b6102d660048036038101906102d1919061268d565b610870565b6040516102e3919061261f565b60405180910390f35b6102f4610927565b005b610310600480360381019061030b919061268d565b61093b565b60405161031d9190612778565b60405180910390f35b61032e6109e9565b60405161033b9190612589565b60405180910390f35b61034c610a13565b60405161035991906124c3565b60405180910390f35b61037c600480360381019061037791906127c6565b610aa5565b005b6103986004803603810190610393919061293b565b610abb565b005b6103b460048036038101906103af919061251b565b610b1d565b6040516103c191906124c3565b60405180910390f35b6103e460048036038101906103df9190612a5f565b610b2f565b6040516103f1919061261f565b60405180910390f35b610414600480360381019061040f9190612abb565b610b63565b6040516104219190612418565b60405180910390f35b610444600480360381019061043f919061268d565b610bf7565b005b600061045182610c7a565b9050919050565b60606000805461046790612b2a565b80601f016020809104026020016040519081016040528092919081815260200182805461049390612b2a565b80156104e05780601f106104b5576101008083540402835291602001916104e0565b820191906000526020600020905b8154815290600101906020018083116104c357829003601f168201915b5050505050905090565b60006104f582610cdb565b6004600083815260200190815260200160002060009054906101000a900473ffffffffffffffffffffffffffffffffffffffff169050919050565b600061053b826107ea565b90508073ffffffffffffffffffffffffffffffffffffffff168373ffffffffffffffffffffffffffffffffffffffff16036105ab576040517f08c379a00000000000000000000000000000000000000000000000000000000081526004016105a290612bcd565b60405180910390fd5b8073ffffffffffffffffffffffffffffffffffffffff166105ca610d26565b73ffffffffffffffffffffffffffffffffffffffff1614806105f957506105f8816105f3610d26565b610b63565b5b610638576040517f08c379a000000000000000000000000000000000000000000000000000000000815260040161062f90612c5f565b60405180910390fd5b6106428383610d2e565b505050565b6000600880549050905090565b61066561065f610d26565b82610de7565b6106a4576040517f08c379a000000000000000000000000000000000000000000000000000000000815260040161069b90612cf1565b60405180910390fd5b6106af838383610e7c565b505050565b60006106bf83610870565b8210610700576040517f08c379a00000000000000000000000000000000000000000000000000000000081526004016106f790612d83565b60405180910390fd5b600660008473ffffffffffffffffffffffffffffffffffffffff1673ffffffffffffffffffffffffffffffffffffffff168152602001908152602001600020600083815260200190815260200160002054905092915050565b61077483838360405180602001604052806000815250610abb565b505050565b6000610783610647565b82106107c4576040517f08c379a00000000000000000000000000000000000000000000000000000000081526004016107bb90612e15565b60405180910390fd5b600882815481106107d8576107d7612e35565b5b90600052602060002001549050919050565b6000806107f683611175565b9050600073ffffffffffffffffffffffffffffffffffffffff168173ffffffffffffffffffffffffffffffffffffffff1603610867576040517f08c379a000000000000000000000000000000000000000000000000000000000815260040161085e90612eb0565b60405180910390fd5b80915050919050565b60008073ffffffffffffffffffffffffffffffffffffffff168273ffffffffffffffffffffffffffffffffffffffff16036108e0576040517f08c379a00000000000000000000000000000000000000000000000000000000081526004016108d790612f42565b60405180910390fd5b600360008373ffffffffffffffffffffffffffffffffffffffff1673ffffffffffffffffffffffffffffffffffffffff168152602001908152602001600020549050919050565b61092f6111b2565b6109396000611230565b565b6060600061094883610870565b905060008167ffffffffffffffff81111561096657610965612810565b5b6040519080825280602002602001820160405280156109945781602001602082028036833780820191505090505b50905060005b828110156109de576109ac85826106b4565b8282815181106109bf576109be612e35565b5b60200260200101818152505080806109d690612f91565b91505061099a565b508092505050919050565b6000600b60009054906101000a900473ffffffffffffffffffffffffffffffffffffffff16905090565b606060018054610a2290612b2a565b80601f0160208091040260200160405190810160405280929190818152602001828054610a4e90612b2a565b8015610a9b5780601f10610a7057610100808354040283529160200191610a9b565b820191906000526020600020905b815481529060010190602001808311610a7e57829003601f168201915b5050505050905090565b610ab7610ab0610d26565b83836112f6565b5050565b610acc610ac6610d26565b83610de7565b610b0b576040517f08c379a0000000000000000000000000000000000000000000000000000000008152600401610b0290612cf1565b60405180910390fd5b610b1784848484611462565b50505050565b6060610b28826114be565b9050919050565b6000610b396111b2565b6000610b43610647565b9050610b4f84826115d0565b610b5981846117ed565b8091505092915050565b6000600560008473ffffffffffffffffffffffffffffffffffffffff1673ffffffffffffffffffffffffffffffffffffffff16815260200190815260200160002060008373ffffffffffffffffffffffffffffffffffffffff1673ffffffffffffffffffffffffffffffffffffffff16815260200190815260200160002060009054906101000a900460ff16905092915050565b610bff6111b2565b600073ffffffffffffffffffffffffffffffffffffffff168173ffffffffffffffffffffffffffffffffffffffff1603610c6e576040517f08c379a0000000000000000000000000000000000000000000000000000000008152600401610c659061304b565b60405180910390fd5b610c7781611230565b50565b6000634906490660e01b7bffffffffffffffffffffffffffffffffffffffffffffffffffffffff1916827bffffffffffffffffffffffffffffffffffffffffffffffffffffffff19161480610cd45750610cd382611891565b5b9050919050565b610ce48161190b565b610d23576040517f08c379a0000000000000000000000000000000000000000000000000000000008152600401610d1a90612eb0565b60405180910390fd5b50565b600033905090565b816004600083815260200190815260200160002060006101000a81548173ffffffffffffffffffffffffffffffffffffffff021916908373ffffffffffffffffffffffffffffffffffffffff160217905550808273ffffffffffffffffffffffffffffffffffffffff16610da1836107ea565b73ffffffffffffffffffffffffffffffffffffffff167f8c5be1e5ebec7d5bd14f71427d1e84f3dd0314c0f7b2291e5b200ac8c7c3b92560405160405180910390a45050565b600080610df3836107ea565b90508073ffffffffffffffffffffffffffffffffffffffff168473ffffffffffffffffffffffffffffffffffffffff161480610e355750610e348185610b63565b5b80610e7357508373ffffffffffffffffffffffffffffffffffffffff16610e5b846104ea565b73ffffffffffffffffffffffffffffffffffffffff16145b91505092915050565b8273ffffffffffffffffffffffffffffffffffffffff16610e9c826107ea565b73ffffffffffffffffffffffffffffffffffffffff1614610ef2576040517f08c379a0000000000000000000000000000000000000000000000000000000008152600401610ee9906130dd565b60405180910390fd5b600073ffffffffffffffffffffffffffffffffffffffff168273ffffffffffffffffffffffffffffffffffffffff1603610f61576040517f08c379a0000000000000000000000000000000000000000000000000000000008152600401610f589061316f565b60405180910390fd5b610f6e838383600161194c565b8273ffffffffffffffffffffffffffffffffffffffff16610f8e826107ea565b73ffffffffffffffffffffffffffffffffffffffff1614610fe4576040517f08c379a0000000000000000000000000000000000000000000000000000000008152600401610fdb906130dd565b60405180910390fd5b6004600082815260200190815260200160002060006101000a81549073ffffffffffffffffffffffffffffffffffffffff02191690556001600360008573ffffffffffffffffffffffffffffffffffffffff1673ffffffffffffffffffffffffffffffffffffffff168152602001908152602001600020600082825403925050819055506001600360008473ffffffffffffffffffffffffffffffffffffffff1673ffffffffffffffffffffffffffffffffffffffff16815260200190815260200160002060008282540192505081905550816002600083815260200190815260200160002060006101000a81548173ffffffffffffffffffffffffffffffffffffffff021916908373ffffffffffffffffffffffffffffffffffffffff160217905550808273ffffffffffffffffffffffffffffffffffffffff168473ffffffffffffffffffffffffffffffffffffffff167fddf252ad1be2c89b69c2b068fc378daa952ba7f163c4a11628f55a4df523b3ef60405160405180910390a4611170838383600161195e565b505050565b60006002600083815260200190815260200160002060009054906101000a900473ffffffffffffffffffffffffffffffffffffffff169050919050565b6111ba610d26565b73ffffffffffffffffffffffffffffffffffffffff166111d86109e9565b73ffffffffffffffffffffffffffffffffffffffff161461122e576040517f08c379a0000000000000000000000000000000000000000000000000000000008152600401611225906131db565b60405180910390fd5b565b6000600b60009054906101000a900473ffffffffffffffffffffffffffffffffffffffff16905081600b60006101000a81548173ffffffffffffffffffffffffffffffffffffffff021916908373ffffffffffffffffffffffffffffffffffffffff1602179055508173ffffffffffffffffffffffffffffffffffffffff168173ffffffffffffffffffffffffffffffffffffffff167f8be0079c531659141344cd1fd0a4f28419497f9722a3daafe3b4186f6b6457e060405160405180910390a35050565b8173ffffffffffffffffffffffffffffffffffffffff168373ffffffffffffffffffffffffffffffffffffffff1603611364576040517f08c379a000000000000000000000000000000000000000000000000000000000815260040161135b90613247565b60405180910390fd5b80600560008573ffffffffffffffffffffffffffffffffffffffff1673ffffffffffffffffffffffffffffffffffffffff16815260200190815260200160002060008473ffffffffffffffffffffffffffffffffffffffff1673ffffffffffffffffffffffffffffffffffffffff16815260200190815260200160002060006101000a81548160ff0219169083151502179055508173ffffffffffffffffffffffffffffffffffffffff168373ffffffffffffffffffffffffffffffffffffffff167f17307eab39ab6107e8899845ad3d59bd9653f200f220920489ca2b5937696c31836040516114559190612418565b60405180910390a3505050565b61146d848484610e7c565b61147984848484611964565b6114b8576040517f08c379a00000000000000000000000000000000000000000000000000000000081526004016114af906132d9565b60405180910390fd5b50505050565b60606114c982610cdb565b6000600a600084815260200190815260200160002080546114e990612b2a565b80601f016020809104026020016040519081016040528092919081815260200182805461151590612b2a565b80156115625780601f1061153757610100808354040283529160200191611562565b820191906000526020600020905b81548152906001019060200180831161154557829003601f168201915b505050505090506000611573611aeb565b905060008151036115885781925050506115cb565b6000825111156115bd5780826040516020016115a5929190613335565b604051602081830303815290604052925050506115cb565b6115c684611b02565b925050505b919050565b600073ffffffffffffffffffffffffffffffffffffffff168273ffffffffffffffffffffffffffffffffffffffff160361163f576040517f08c379a0000000000000000000000000000000000000000000000000000000008152600401611636906133a5565b60405180910390fd5b6116488161190b565b15611688576040517f08c379a000000000000000000000000000000000000000000000000000000000815260040161167f90613411565b60405180910390fd5b61169660008383600161194c565b61169f8161190b565b156116df576040517f08c379a00000000000000000000000000000000000000000000000000000000081526004016116d690613411565b60405180910390fd5b6001600360008473ffffffffffffffffffffffffffffffffffffffff1673ffffffffffffffffffffffffffffffffffffffff16815260200190815260200160002060008282540192505081905550816002600083815260200190815260200160002060006101000a81548173ffffffffffffffffffffffffffffffffffffffff021916908373ffffffffffffffffffffffffffffffffffffffff160217905550808273ffffffffffffffffffffffffffffffffffffffff16600073ffffffffffffffffffffffffffffffffffffffff167fddf252ad1be2c89b69c2b068fc378daa952ba7f163c4a11628f55a4df523b3ef60405160405180910390a46117e960008383600161195e565b5050565b6117f68261190b565b611835576040517f08c379a000000000000000000000000000000000000000000000000000000000815260040161182c906134a3565b60405180910390fd5b80600a60008481526020019081526020016000209081611855919061366f565b507ff8e1a15aba9398e019f0b49df1a4fde98ee17ae345cb5f6b5e2c27f5033e8ce782604051611885919061261f565b60405180910390a15050565b60007f780e9d63000000000000000000000000000000000000000000000000000000007bffffffffffffffffffffffffffffffffffffffffffffffffffffffff1916827bffffffffffffffffffffffffffffffffffffffffffffffffffffffff19161480611904575061190382611b6a565b5b9050919050565b60008073ffffffffffffffffffffffffffffffffffffffff1661192d83611175565b73ffffffffffffffffffffffffffffffffffffffff1614159050919050565b61195884848484611c4c565b50505050565b50505050565b60006119858473ffffffffffffffffffffffffffffffffffffffff16611daa565b15611ade578373ffffffffffffffffffffffffffffffffffffffff1663150b7a026119ae610d26565b8786866040518563ffffffff1660e01b81526004016119d09493929190613796565b6020604051808303816000875af1925050508015611a0c57506040513d601f19601f82011682018060405250810190611a0991906137f7565b60015b611a8e573d8060008114611a3c576040519150601f19603f3d011682016040523d82523d6000602084013e611a41565b606091505b506000815103611a86576040517f08c379a0000000000000000000000000000000000000000000000000000000008152600401611a7d906132d9565b60405180910390fd5b805181602001fd5b63150b7a0260e01b7bffffffffffffffffffffffffffffffffffffffffffffffffffffffff1916817bffffffffffffffffffffffffffffffffffffffffffffffffffffffff191614915050611ae3565b600190505b949350505050565b606060405180602001604052806000815250905090565b6060611b0d82610cdb565b6000611b17611aeb565b90506000815111611b375760405180602001604052806000815250611b62565b80611b4184611dcd565b604051602001611b52929190613335565b6040516020818303038152906040525b915050919050565b60007f80ac58cd000000000000000000000000000000000000000000000000000000007bffffffffffffffffffffffffffffffffffffffffffffffffffffffff1916827bffffffffffffffffffffffffffffffffffffffffffffffffffffffff19161480611c3557507f5b5e139f000000000000000000000000000000000000000000000000000000007bffffffffffffffffffffffffffffffffffffffffffffffffffffffff1916827bffffffffffffffffffffffffffffffffffffffffffffffffffffffff1916145b80611c455750611c4482611e9b565b5b9050919050565b611c5884848484611f05565b6001811115611c9c576040517f08c379a0000000000000000000000000000000000000000000000000000000008152600401611c9390613896565b60405180910390fd5b6000829050600073ffffffffffffffffffffffffffffffffffffffff168573ffffffffffffffffffffffffffffffffffffffff1603611ce357611cde81611f0b565b611d22565b8373ffffffffffffffffffffffffffffffffffffffff168573ffffffffffffffffffffffffffffffffffffffff1614611d2157611d208582611f54565b5b5b600073ffffffffffffffffffffffffffffffffffffffff168473ffffffffffffffffffffffffffffffffffffffff1603611d6457611d5f816120c1565b611da3565b8473ffffffffffffffffffffffffffffffffffffffff168473ffffffffffffffffffffffffffffffffffffffff1614611da257611da18482612192565b5b5b5050505050565b6000808273ffffffffffffffffffffffffffffffffffffffff163b119050919050565b606060006001611ddc84612211565b01905060008167ffffffffffffffff811115611dfb57611dfa612810565b5b6040519080825280601f01601f191660200182016040528015611e2d5781602001600182028036833780820191505090505b509050600082602001820190505b600115611e90578080600190039150507f3031323334353637383961626364656600000000000000000000000000000000600a86061a8153600a8581611e8457611e836138b6565b5b04945060008503611e3b575b819350505050919050565b60007f01ffc9a7000000000000000000000000000000000000000000000000000000007bffffffffffffffffffffffffffffffffffffffffffffffffffffffff1916827bffffffffffffffffffffffffffffffffffffffffffffffffffffffff1916149050919050565b50505050565b6008805490506009600083815260200190815260200160002081905550600881908060018154018082558091505060019003906000526020600020016000909190919091505550565b60006001611f6184610870565b611f6b91906138e5565b9050600060076000848152602001908152602001600020549050818114612050576000600660008673ffffffffffffffffffffffffffffffffffffffff1673ffffffffffffffffffffffffffffffffffffffff168152602001908152602001600020600084815260200190815260200160002054905080600660008773ffffffffffffffffffffffffffffffffffffffff1673ffffffffffffffffffffffffffffffffffffffff168152602001908152602001600020600084815260200190815260200160002081905550816007600083815260200190815260200160002081905550505b6007600084815260200190815260200160002060009055600660008573ffffffffffffffffffffffffffffffffffffffff1673ffffffffffffffffffffffffffffffffffffffff16815260200190815260200160002060008381526020019081526020016000206000905550505050565b600060016008805490506120d591906138e5565b905060006009600084815260200190815260200160002054905060006008838154811061210557612104612e35565b5b90600052602060002001549050806008838154811061212757612126612e35565b5b90600052602060002001819055508160096000838152602001908152602001600020819055506009600085815260200190815260200160002060009055600880548061217657612175613919565b5b6001900381819060005260206000200160009055905550505050565b600061219d83610870565b905081600660008573ffffffffffffffffffffffffffffffffffffffff1673ffffffffffffffffffffffffffffffffffffffff168152602001908152602001600020600083815260200190815260200160002081905550806007600084815260200190815260200160002081905550505050565b600080600090507a184f03e93ff9f4daa797ed6e38ed64bf6a1f010000000000000000831061226f577a184f03e93ff9f4daa797ed6e38ed64bf6a1f0100000000000000008381612265576122646138b6565b5b0492506040810190505b6d04ee2d6d415b85acef810000000083106122ac576d04ee2d6d415b85acef810000000083816122a2576122a16138b6565b5b0492506020810190505b662386f26fc1000083106122db57662386f26fc1000083816122d1576122d06138b6565b5b0492506010810190505b6305f5e1008310612304576305f5e10083816122fa576122f96138b6565b5b0492506008810190505b612710831061232957612710838161231f5761231e6138b6565b5b0492506004810190505b6064831061234c5760648381612342576123416138b6565b5b0492506002810190505b600a831061235b576001810190505b80915050919050565b6000604051905090565b600080fd5b600080fd5b60007fffffffff0000000000000000000000000000000000000000000000000000000082169050919050565b6123ad81612378565b81146123b857600080fd5b50565b6000813590506123ca816123a4565b92915050565b6000602082840312156123e6576123e561236e565b5b60006123f4848285016123bb565b91505092915050565b60008115159050919050565b612412816123fd565b82525050565b600060208201905061242d6000830184612409565b92915050565b600081519050919050565b600082825260208201905092915050565b60005b8381101561246d578082015181840152602081019050612452565b60008484015250505050565b6000601f19601f8301169050919050565b600061249582612433565b61249f818561243e565b93506124af81856020860161244f565b6124b881612479565b840191505092915050565b600060208201905081810360008301526124dd818461248a565b905092915050565b6000819050919050565b6124f8816124e5565b811461250357600080fd5b50565b600081359050612515816124ef565b92915050565b6000602082840312156125315761253061236e565b5b600061253f84828501612506565b91505092915050565b600073ffffffffffffffffffffffffffffffffffffffff82169050919050565b600061257382612548565b9050919050565b61258381612568565b82525050565b600060208201905061259e600083018461257a565b92915050565b6125ad81612568565b81146125b857600080fd5b50565b6000813590506125ca816125a4565b92915050565b600080604083850312156125e7576125e661236e565b5b60006125f5858286016125bb565b925050602061260685828601612506565b9150509250929050565b612619816124e5565b82525050565b60006020820190506126346000830184612610565b92915050565b6000806000606084860312156126535761265261236e565b5b6000612661868287016125bb565b9350506020612672868287016125bb565b925050604061268386828701612506565b9150509250925092565b6000602082840312156126a3576126a261236e565b5b60006126b1848285016125bb565b91505092915050565b600081519050919050565b600082825260208201905092915050565b6000819050602082019050919050565b6126ef816124e5565b82525050565b600061270183836126e6565b60208301905092915050565b6000602082019050919050565b6000612725826126ba565b61272f81856126c5565b935061273a836126d6565b8060005b8381101561276b57815161275288826126f5565b975061275d8361270d565b92505060018101905061273e565b5085935050505092915050565b60006020820190508181036000830152612792818461271a565b905092915050565b6127a3816123fd565b81146127ae57600080fd5b50565b6000813590506127c08161279a565b92915050565b600080604083850312156127dd576127dc61236e565b5b60006127eb858286016125bb565b92505060206127fc858286016127b1565b9150509250929050565b600080fd5b600080fd5b7f4e487b7100000000000000000000000000000000000000000000000000000000600052604160045260246000fd5b61284882612479565b810181811067ffffffffffffffff8211171561286757612866612810565b5b80604052505050565b600061287a612364565b9050612886828261283f565b919050565b600067ffffffffffffffff8211156128a6576128a5612810565b5b6128af82612479565b9050602081019050919050565b82818337600083830152505050565b60006128de6128d98461288b565b612870565b9050828152602081018484840111156128fa576128f961280b565b5b6129058482856128bc565b509392505050565b600082601f83011261292257612921612806565b5b81356129328482602086016128cb565b91505092915050565b600080600080608085870312156129555761295461236e565b5b6000612963878288016125bb565b9450506020612974878288016125bb565b935050604061298587828801612506565b925050606085013567ffffffffffffffff8111156129a6576129a5612373565b5b6129b28782880161290d565b91505092959194509250565b600067ffffffffffffffff8211156129d9576129d8612810565b5b6129e282612479565b9050602081019050919050565b6000612a026129fd846129be565b612870565b905082815260208101848484011115612a1e57612a1d61280b565b5b612a298482856128bc565b509392505050565b600082601f830112612a4657612a45612806565b5b8135612a568482602086016129ef565b91505092915050565b60008060408385031215612a7657612a7561236e565b5b6000612a84858286016125bb565b925050602083013567ffffffffffffffff811115612aa557612aa4612373565b5b612ab185828601612a31565b9150509250929050565b60008060408385031215612ad257612ad161236e565b5b6000612ae0858286016125bb565b9250506020612af1858286016125bb565b9150509250929050565b7f4e487b7100000000000000000000000000000000000000000000000000000000600052602260045260246000fd5b60006002820490506001821680612b4257607f821691505b602082108103612b5557612b54612afb565b5b50919050565b7f4552433732313a20617070726f76616c20746f2063757272656e74206f776e6560008201527f7200000000000000000000000000000000000000000000000000000000000000602082015250565b6000612bb760218361243e565b9150612bc282612b5b565b604082019050919050565b60006020820190508181036000830152612be681612baa565b9050919050565b7f4552433732313a20617070726f76652063616c6c6572206973206e6f7420746f60008201527f6b656e206f776e6572206f7220617070726f76656420666f7220616c6c000000602082015250565b6000612c49603d8361243e565b9150612c5482612bed565b604082019050919050565b60006020820190508181036000830152612c7881612c3c565b9050919050565b7f4552433732313a2063616c6c6572206973206e6f7420746f6b656e206f776e6560008201527f72206f7220617070726f76656400000000000000000000000000000000000000602082015250565b6000612cdb602d8361243e565b9150612ce682612c7f565b604082019050919050565b60006020820190508181036000830152612d0a81612cce565b9050919050565b7f455243373231456e756d657261626c653a206f776e657220696e646578206f7560008201527f74206f6620626f756e6473000000000000000000000000000000000000000000602082015250565b6000612d6d602b8361243e565b9150612d7882612d11565b604082019050919050565b60006020820190508181036000830152612d9c81612d60565b9050919050565b7f455243373231456e756d657261626c653a20676c6f62616c20696e646578206f60008201527f7574206f6620626f756e64730000000000000000000000000000000000000000602082015250565b6000612dff602c8361243e565b9150612e0a82612da3565b604082019050919050565b60006020820190508181036000830152612e2e81612df2565b9050919050565b7f4e487b7100000000000000000000000000000000000000000000000000000000600052603260045260246000fd5b7f4552433732313a20696e76616c696420746f6b656e2049440000000000000000600082015250565b6000612e9a60188361243e565b9150612ea582612e64565b602082019050919050565b60006020820190508181036000830152612ec981612e8d565b9050919050565b7f4552433732313a2061646472657373207a65726f206973206e6f74206120766160008201527f6c6964206f776e65720000000000000000000000000000000000000000000000602082015250565b6000612f2c60298361243e565b9150612f3782612ed0565b604082019050919050565b60006020820190508181036000830152612f5b81612f1f565b9050919050565b7f4e487b7100000000000000000000000000000000000000000000000000000000600052601160045260246000fd5b6000612f9c826124e5565b91507fffffffffffffffffffffffffffffffffffffffffffffffffffffffffffffffff8203612fce57612fcd612f62565b5b600182019050919050565b7f4f776e61626c653a206e6577206f776e657220697320746865207a65726f206160008201527f6464726573730000000000000000000000000000000000000000000000000000602082015250565b600061303560268361243e565b915061304082612fd9565b604082019050919050565b6000602082019050818103600083015261306481613028565b9050919050565b7f4552433732313a207472616e736665722066726f6d20696e636f72726563742060008201527f6f776e6572000000000000000000000000000000000000000000000000000000602082015250565b60006130c760258361243e565b91506130d28261306b565b604082019050919050565b600060208201905081810360008301526130f6816130ba565b9050919050565b7f4552433732313a207472616e7366657220746f20746865207a65726f2061646460008201527f7265737300000000000000000000000000000000000000000000000000000000602082015250565b600061315960248361243e565b9150613164826130fd565b604082019050919050565b600060208201905081810360008301526131888161314c565b9050919050565b7f4f776e61626c653a2063616c6c6572206973206e6f7420746865206f776e6572600082015250565b60006131c560208361243e565b91506131d08261318f565b602082019050919050565b600060208201905081810360008301526131f4816131b8565b9050919050565b7f4552433732313a20617070726f766520746f2063616c6c657200000000000000600082015250565b600061323160198361243e565b915061323c826131fb565b602082019050919050565b6000602082019050818103600083015261326081613224565b9050919050565b7f4552433732313a207472616e7366657220746f206e6f6e20455243373231526560008201527f63656976657220696d706c656d656e7465720000000000000000000000000000602082015250565b60006132c360328361243e565b91506132ce82613267565b604082019050919050565b600060208201905081810360008301526132f2816132b6565b9050919050565b600081905092915050565b600061330f82612433565b61331981856132f9565b935061332981856020860161244f565b80840191505092915050565b60006133418285613304565b915061334d8284613304565b91508190509392505050565b7f4552433732313a206d696e7420746f20746865207a65726f2061646472657373600082015250565b600061338f60208361243e565b915061339a82613359565b602082019050919050565b600060208201905081810360008301526133be81613382565b9050919050565b7f4552433732313a20746f6b656e20616c7265616479206d696e74656400000000600082015250565b60006133fb601c8361243e565b9150613406826133c5565b602082019050919050565b6000602082019050818103600083015261342a816133ee565b9050919050565b7f45524337323155524953746f726167653a2055524920736574206f66206e6f6e60008201527f6578697374656e7420746f6b656e000000000000000000000000000000000000602082015250565b600061348d602e8361243e565b915061349882613431565b604082019050919050565b600060208201905081810360008301526134bc81613480565b9050919050565b60008190508160005260206000209050919050565b60006020601f8301049050919050565b600082821b905092915050565b6000600883026135257fffffffffffffffffffffffffffffffffffffffffffffffffffffffffffffffff826134e8565b61352f86836134e8565b95508019841693508086168417925050509392505050565b6000819050919050565b600061356c613567613562846124e5565b613547565b6124e5565b9050919050565b6000819050919050565b61358683613551565b61359a61359282613573565b8484546134f5565b825550505050565b600090565b6135af6135a2565b6135ba81848461357d565b505050565b5b818110156135de576135d36000826135a7565b6001810190506135c0565b5050565b601f821115613623576135f4816134c3565b6135fd846134d8565b8101602085101561360c578190505b613620613618856134d8565b8301826135bf565b50505b505050565b600082821c905092915050565b600061364660001984600802613628565b1980831691505092915050565b600061365f8383613635565b9150826002028217905092915050565b61367882612433565b67ffffffffffffffff81111561369157613690612810565b5b61369b8254612b2a565b6136a68282856135e2565b600060209050601f8311600181146136d957600084156136c7578287015190505b6136d18582613653565b865550613739565b601f1984166136e7866134c3565b60005b8281101561370f578489015182556001820191506020850194506020810190506136ea565b8683101561372c5784890151613728601f891682613635565b8355505b6001600288020188555050505b505050505050565b600081519050919050565b600082825260208201905092915050565b600061376882613741565b613772818561374c565b935061378281856020860161244f565b61378b81612479565b840191505092915050565b60006080820190506137ab600083018761257a565b6137b8602083018661257a565b6137c56040830185612610565b81810360608301526137d7818461375d565b905095945050505050565b6000815190506137f1816123a4565b92915050565b60006020828403121561380d5761380c61236e565b5b600061381b848285016137e2565b91505092915050565b7f455243373231456e756d657261626c653a20636f6e736563757469766520747260008201527f616e7366657273206e6f7420737570706f727465640000000000000000000000602082015250565b600061388060358361243e565b915061388b82613824565b604082019050919050565b600060208201905081810360008301526138af81613873565b9050919050565b7f4e487b7100000000000000000000000000000000000000000000000000000000600052601260045260246000fd5b60006138f0826124e5565b91506138fb836124e5565b925082820390508181111561391357613912612f62565b5b92915050565b7f4e487b7100000000000000000000000000000000000000000000000000000000600052603160045260246000fdfea2646970667358221220ca411ba4b23300d92af2965da3277701cb39aaa19d839b5ebde7b5de6440e64264736f6c63430008130033",
  "immutableReferences": {},
  "source": "// SPDX-License-Identifier: MIT\npragma solidity >=0.4.22 <0.9.0;\n\nimport \"@openzeppelin/contracts/token/ERC721/extensions/ERC721URIStorage.sol\";\nimport \"@openzeppelin/contracts/token/ERC721/extensions/ERC721Enumerable.sol\";\nimport \"@openzeppelin/contracts/access/Ownable.sol\";\n\ncontract KYSNFT is ERC721Enumerable, ERC721URIStorage, Ownable {\n    constructor(address initialOwner) ERC721(\"In My Sleep Easter Eggs\", \"IMS\") {\n        // transferOwnership(initialOwner);\n    }\n\n    function mint(\n        address to,\n        string memory _tokenURI\n    ) public onlyOwner returns (uint256) {\n        uint256 newTokenId = totalSupply();\n        _mint(to, newTokenId);\n        _setTokenURI(newTokenId, _tokenURI);\n\n        return newTokenId;\n    }\n\n    // function burn(uint256 tokenId) internal {\n    //     _burn(tokenId);\n    //     _setTokenURI(tokenId, \"\");\n    // }\n\n    function tokenURI(\n        uint256 tokenId\n    ) public view override(ERC721, ERC721URIStorage) returns (string memory) {\n        return super.tokenURI(tokenId);\n    }\n\n    function tokensOfOwner(\n        address owner\n    ) public view returns (uint256[] memory) {\n        uint256 tokenCount = balanceOf(owner);\n        uint256[] memory tokenIds = new uint256[](tokenCount);\n\n        for (uint256 i = 0; i < tokenCount; i++) {\n            tokenIds[i] = tokenOfOwnerByIndex(owner, i);\n        }\n\n        return tokenIds;\n    }\n\n    function supportsInterface(\n        bytes4 interfaceId\n    ) public view override(ERC721Enumerable, ERC721URIStorage) returns (bool) {\n        return super.supportsInterface(interfaceId);\n    }\n\n    // function _increaseBalance(\n    //     address account,\n    //     uint128 value\n    // ) internal override(ERC721, ERC721Enumerable) {\n    //     super._increaseBalance(account, value);\n    // }\n\n    // function _update(\n    //     address to,\n    //     uint256 tokenId,\n    //     address auth\n    // ) internal override(ERC721, ERC721Enumerable) returns (address) {\n    //     return super._update(to, tokenId, auth);\n    // }\n\n    function _beforeTokenTransfer(\n        address from,\n        address to,\n        uint256 tokenId,\n        uint256 batchSize\n    ) internal override(ERC721, ERC721Enumerable) {\n        super._beforeTokenTransfer(from, to, tokenId, batchSize);\n    }\n\n    function _burn(\n        uint256 tokenId\n    ) internal override(ERC721, ERC721URIStorage) {\n        super._burn(tokenId);\n    }\n}\n",
  "sourcePath": "C:\\Users\\SSAFY\\Desktop\\\\S11P21E107\\solidity-contracts\\contracts\\KYSNFT.sol",
  "compiler": {
    "name": "solc",
    "version": "0.8.19+commit.7dd6d404.Emscripten.clang"
  },
  "schemaVersion": "3.4.16",
  "updatedAt": "2024-09-09T02:55:00.047Z",
  "networkType": "ethereum",
  "devdoc": {
    "events": {
      "Approval(address,address,uint256)": {
        "details": "Emitted when `owner` enables `approved` to manage the `tokenId` token."
      },
      "ApprovalForAll(address,address,bool)": {
        "details": "Emitted when `owner` enables or disables (`approved`) `operator` to manage all of its assets."
      },
      "BatchMetadataUpdate(uint256,uint256)": {
        "details": "This event emits when the metadata of a range of tokens is changed. So that the third-party platforms such as NFT market could timely update the images and related attributes of the NFTs."
      },
      "MetadataUpdate(uint256)": {
        "details": "This event emits when the metadata of a token is changed. So that the third-party platforms such as NFT market could timely update the images and related attributes of the NFT."
      },
      "Transfer(address,address,uint256)": {
        "details": "Emitted when `tokenId` token is transferred from `from` to `to`."
      }
    },
    "kind": "dev",
    "methods": {
      "approve(address,uint256)": {
        "details": "See {IERC721-approve}."
      },
      "balanceOf(address)": {
        "details": "See {IERC721-balanceOf}."
      },
      "getApproved(uint256)": {
        "details": "See {IERC721-getApproved}."
      },
      "isApprovedForAll(address,address)": {
        "details": "See {IERC721-isApprovedForAll}."
      },
      "name()": {
        "details": "See {IERC721Metadata-name}."
      },
      "owner()": {
        "details": "Returns the address of the current owner."
      },
      "ownerOf(uint256)": {
        "details": "See {IERC721-ownerOf}."
      },
      "renounceOwnership()": {
        "details": "Leaves the contract without owner. It will not be possible to call `onlyOwner` functions. Can only be called by the current owner. NOTE: Renouncing ownership will leave the contract without an owner, thereby disabling any functionality that is only available to the owner."
      },
      "safeTransferFrom(address,address,uint256)": {
        "details": "See {IERC721-safeTransferFrom}."
      },
      "safeTransferFrom(address,address,uint256,bytes)": {
        "details": "See {IERC721-safeTransferFrom}."
      },
      "setApprovalForAll(address,bool)": {
        "details": "See {IERC721-setApprovalForAll}."
      },
      "symbol()": {
        "details": "See {IERC721Metadata-symbol}."
      },
      "tokenByIndex(uint256)": {
        "details": "See {IERC721Enumerable-tokenByIndex}."
      },
      "tokenOfOwnerByIndex(address,uint256)": {
        "details": "See {IERC721Enumerable-tokenOfOwnerByIndex}."
      },
      "totalSupply()": {
        "details": "See {IERC721Enumerable-totalSupply}."
      },
      "transferFrom(address,address,uint256)": {
        "details": "See {IERC721-transferFrom}."
      },
      "transferOwnership(address)": {
        "details": "Transfers ownership of the contract to a new account (`newOwner`). Can only be called by the current owner."
      }
    },
    "version": 1
  },
  "userdoc": {
    "kind": "user",
    "methods": {},
    "version": 1
  }
}