{
  "contractName": "KYSNFT",
  "abi": [
    {
      "inputs": [
        {
          "internalType": "address",
          "name": "initialOwner",
          "type": "address"
        }
      ],
      "stateMutability": "nonpayable",
      "type": "constructor"
    },
    {
      "anonymous": false,
      "inputs": [
        {
          "indexed": true,
          "internalType": "address",
          "name": "owner",
          "type": "address"
        },
        {
          "indexed": true,
          "internalType": "address",
          "name": "approved",
          "type": "address"
        },
        {
          "indexed": true,
          "internalType": "uint256",
          "name": "tokenId",
          "type": "uint256"
        }
      ],
      "name": "Approval",
      "type": "event"
    },
    {
      "anonymous": false,
      "inputs": [
        {
          "indexed": true,
          "internalType": "address",
          "name": "owner",
          "type": "address"
        },
        {
          "indexed": true,
          "internalType": "address",
          "name": "operator",
          "type": "address"
        },
        {
          "indexed": false,
          "internalType": "bool",
          "name": "approved",
          "type": "bool"
        }
      ],
      "name": "ApprovalForAll",
      "type": "event"
    },
    {
      "anonymous": false,
      "inputs": [
        {
          "indexed": false,
          "internalType": "uint256",
          "name": "_fromTokenId",
          "type": "uint256"
        },
        {
          "indexed": false,
          "internalType": "uint256",
          "name": "_toTokenId",
          "type": "uint256"
        }
      ],
      "name": "BatchMetadataUpdate",
      "type": "event"
    },
    {
      "anonymous": false,
      "inputs": [
        {
          "indexed": false,
          "internalType": "uint256",
          "name": "_tokenId",
          "type": "uint256"
        }
      ],
      "name": "MetadataUpdate",
      "type": "event"
    },
    {
      "anonymous": false,
      "inputs": [
        {
          "indexed": true,
          "internalType": "address",
          "name": "previousOwner",
          "type": "address"
        },
        {
          "indexed": true,
          "internalType": "address",
          "name": "newOwner",
          "type": "address"
        }
      ],
      "name": "OwnershipTransferred",
      "type": "event"
    },
    {
      "anonymous": false,
      "inputs": [
        {
          "indexed": true,
          "internalType": "address",
          "name": "from",
          "type": "address"
        },
        {
          "indexed": true,
          "internalType": "address",
          "name": "to",
          "type": "address"
        },
        {
          "indexed": true,
          "internalType": "uint256",
          "name": "tokenId",
          "type": "uint256"
        }
      ],
      "name": "Transfer",
      "type": "event"
    },
    {
      "inputs": [
        {
          "internalType": "address",
          "name": "to",
          "type": "address"
        },
        {
          "internalType": "uint256",
          "name": "tokenId",
          "type": "uint256"
        }
      ],
      "name": "approve",
      "outputs": [],
      "stateMutability": "nonpayable",
      "type": "function"
    },
    {
      "inputs": [
        {
          "internalType": "address",
          "name": "owner",
          "type": "address"
        }
      ],
      "name": "balanceOf",
      "outputs": [
        {
          "internalType": "uint256",
          "name": "",
          "type": "uint256"
        }
      ],
      "stateMutability": "view",
      "type": "function",
      "constant": true
    },
    {
      "inputs": [
        {
          "internalType": "uint256",
          "name": "tokenId",
          "type": "uint256"
        }
      ],
      "name": "getApproved",
      "outputs": [
        {
          "internalType": "address",
          "name": "",
          "type": "address"
        }
      ],
      "stateMutability": "view",
      "type": "function",
      "constant": true
    },
    {
      "inputs": [
        {
          "internalType": "address",
          "name": "owner",
          "type": "address"
        },
        {
          "internalType": "address",
          "name": "operator",
          "type": "address"
        }
      ],
      "name": "isApprovedForAll",
      "outputs": [
        {
          "internalType": "bool",
          "name": "",
          "type": "bool"
        }
      ],
      "stateMutability": "view",
      "type": "function",
      "constant": true
    },
    {
      "inputs": [],
      "name": "name",
      "outputs": [
        {
          "internalType": "string",
          "name": "",
          "type": "string"
        }
      ],
      "stateMutability": "view",
      "type": "function",
      "constant": true
    },
    {
      "inputs": [],
      "name": "owner",
      "outputs": [
        {
          "internalType": "address",
          "name": "",
          "type": "address"
        }
      ],
      "stateMutability": "view",
      "type": "function",
      "constant": true
    },
    {
      "inputs": [
        {
          "internalType": "uint256",
          "name": "tokenId",
          "type": "uint256"
        }
      ],
      "name": "ownerOf",
      "outputs": [
        {
          "internalType": "address",
          "name": "",
          "type": "address"
        }
      ],
      "stateMutability": "view",
      "type": "function",
      "constant": true
    },
    {
      "inputs": [],
      "name": "renounceOwnership",
      "outputs": [],
      "stateMutability": "nonpayable",
      "type": "function"
    },
    {
      "inputs": [
        {
          "internalType": "address",
          "name": "from",
          "type": "address"
        },
        {
          "internalType": "address",
          "name": "to",
          "type": "address"
        },
        {
          "internalType": "uint256",
          "name": "tokenId",
          "type": "uint256"
        }
      ],
      "name": "safeTransferFrom",
      "outputs": [],
      "stateMutability": "nonpayable",
      "type": "function"
    },
    {
      "inputs": [
        {
          "internalType": "address",
          "name": "from",
          "type": "address"
        },
        {
          "internalType": "address",
          "name": "to",
          "type": "address"
        },
        {
          "internalType": "uint256",
          "name": "tokenId",
          "type": "uint256"
        },
        {
          "internalType": "bytes",
          "name": "data",
          "type": "bytes"
        }
      ],
      "name": "safeTransferFrom",
      "outputs": [],
      "stateMutability": "nonpayable",
      "type": "function"
    },
    {
      "inputs": [
        {
          "internalType": "address",
          "name": "operator",
          "type": "address"
        },
        {
          "internalType": "bool",
          "name": "approved",
          "type": "bool"
        }
      ],
      "name": "setApprovalForAll",
      "outputs": [],
      "stateMutability": "nonpayable",
      "type": "function"
    },
    {
      "inputs": [],
      "name": "symbol",
      "outputs": [
        {
          "internalType": "string",
          "name": "",
          "type": "string"
        }
      ],
      "stateMutability": "view",
      "type": "function",
      "constant": true
    },
    {
      "inputs": [
        {
          "internalType": "uint256",
          "name": "index",
          "type": "uint256"
        }
      ],
      "name": "tokenByIndex",
      "outputs": [
        {
          "internalType": "uint256",
          "name": "",
          "type": "uint256"
        }
      ],
      "stateMutability": "view",
      "type": "function",
      "constant": true
    },
    {
      "inputs": [
        {
          "internalType": "address",
          "name": "owner",
          "type": "address"
        },
        {
          "internalType": "uint256",
          "name": "index",
          "type": "uint256"
        }
      ],
      "name": "tokenOfOwnerByIndex",
      "outputs": [
        {
          "internalType": "uint256",
          "name": "",
          "type": "uint256"
        }
      ],
      "stateMutability": "view",
      "type": "function",
      "constant": true
    },
    {
      "inputs": [],
      "name": "totalSupply",
      "outputs": [
        {
          "internalType": "uint256",
          "name": "",
          "type": "uint256"
        }
      ],
      "stateMutability": "view",
      "type": "function",
      "constant": true
    },
    {
      "inputs": [
        {
          "internalType": "address",
          "name": "from",
          "type": "address"
        },
        {
          "internalType": "address",
          "name": "to",
          "type": "address"
        },
        {
          "internalType": "uint256",
          "name": "tokenId",
          "type": "uint256"
        }
      ],
      "name": "transferFrom",
      "outputs": [],
      "stateMutability": "nonpayable",
      "type": "function"
    },
    {
      "inputs": [
        {
          "internalType": "address",
          "name": "newOwner",
          "type": "address"
        }
      ],
      "name": "transferOwnership",
      "outputs": [],
      "stateMutability": "nonpayable",
      "type": "function"
    },
    {
      "inputs": [
        {
          "internalType": "address",
          "name": "to",
          "type": "address"
        },
        {
          "internalType": "string",
          "name": "_tokenURI",
          "type": "string"
        }
      ],
      "name": "mint",
      "outputs": [
        {
          "internalType": "uint256",
          "name": "",
          "type": "uint256"
        }
      ],
      "stateMutability": "nonpayable",
      "type": "function"
    },
    {
      "inputs": [
        {
          "internalType": "uint256",
          "name": "tokenId",
          "type": "uint256"
        }
      ],
      "name": "tokenURI",
      "outputs": [
        {
          "internalType": "string",
          "name": "",
          "type": "string"
        }
      ],
      "stateMutability": "view",
      "type": "function",
      "constant": true
    },
    {
      "inputs": [
        {
          "internalType": "address",
          "name": "owner",
          "type": "address"
        }
      ],
      "name": "tokensOfOwner",
      "outputs": [
        {
          "internalType": "uint256[]",
          "name": "",
          "type": "uint256[]"
        }
      ],
      "stateMutability": "view",
      "type": "function",
      "constant": true
    },
    {
      "inputs": [
        {
          "internalType": "address",
          "name": "owner",
          "type": "address"
        }
      ],
      "name": "tokenURIsOfOwner",
      "outputs": [
        {
          "internalType": "string[]",
          "name": "",
          "type": "string[]"
        }
      ],
      "stateMutability": "view",
      "type": "function",
      "constant": true
    },
    {
      "inputs": [
        {
          "internalType": "bytes4",
          "name": "interfaceId",
          "type": "bytes4"
        }
      ],
      "name": "supportsInterface",
      "outputs": [
        {
          "internalType": "bool",
          "name": "",
          "type": "bool"
        }
      ],
      "stateMutability": "view",
      "type": "function",
      "constant": true
    },
    {
      "inputs": [
        {
          "internalType": "uint256",
          "name": "tokenId",
          "type": "uint256"
        }
      ],
      "name": "burn",
      "outputs": [],
      "stateMutability": "nonpayable",
      "type": "function"
    }
  ],
  "bytecode": "0x60806040523480156200001157600080fd5b506040516200448438038062004484833981810160405281019062000037919062000228565b6040518060400160405280601781526020017f496e204d7920536c6565702045617374657220456767730000000000000000008152506040518060400160405280600381526020017f494d5300000000000000000000000000000000000000000000000000000000008152508160009081620000b49190620004d4565b508060019081620000c69190620004d4565b505050620000e9620000dd620000f060201b60201c565b620000f860201b60201c565b50620005bb565b600033905090565b6000600b60009054906101000a900473ffffffffffffffffffffffffffffffffffffffff16905081600b60006101000a81548173ffffffffffffffffffffffffffffffffffffffff021916908373ffffffffffffffffffffffffffffffffffffffff1602179055508173ffffffffffffffffffffffffffffffffffffffff168173ffffffffffffffffffffffffffffffffffffffff167f8be0079c531659141344cd1fd0a4f28419497f9722a3daafe3b4186f6b6457e060405160405180910390a35050565b600080fd5b600073ffffffffffffffffffffffffffffffffffffffff82169050919050565b6000620001f082620001c3565b9050919050565b6200020281620001e3565b81146200020e57600080fd5b50565b6000815190506200022281620001f7565b92915050565b600060208284031215620002415762000240620001be565b5b6000620002518482850162000211565b91505092915050565b600081519050919050565b7f4e487b7100000000000000000000000000000000000000000000000000000000600052604160045260246000fd5b7f4e487b7100000000000000000000000000000000000000000000000000000000600052602260045260246000fd5b60006002820490506001821680620002dc57607f821691505b602082108103620002f257620002f162000294565b5b50919050565b60008190508160005260206000209050919050565b60006020601f8301049050919050565b600082821b905092915050565b6000600883026200035c7fffffffffffffffffffffffffffffffffffffffffffffffffffffffffffffffff826200031d565b6200036886836200031d565b95508019841693508086168417925050509392505050565b6000819050919050565b6000819050919050565b6000620003b5620003af620003a98462000380565b6200038a565b62000380565b9050919050565b6000819050919050565b620003d18362000394565b620003e9620003e082620003bc565b8484546200032a565b825550505050565b600090565b62000400620003f1565b6200040d818484620003c6565b505050565b5b81811015620004355762000429600082620003f6565b60018101905062000413565b5050565b601f82111562000484576200044e81620002f8565b62000459846200030d565b8101602085101562000469578190505b6200048162000478856200030d565b83018262000412565b50505b505050565b600082821c905092915050565b6000620004a96000198460080262000489565b1980831691505092915050565b6000620004c4838362000496565b9150826002028217905092915050565b620004df826200025a565b67ffffffffffffffff811115620004fb57620004fa62000265565b5b620005078254620002c3565b6200051482828562000439565b600060209050601f8311600181146200054c576000841562000537578287015190505b620005438582620004b6565b865550620005b3565b601f1984166200055c86620002f8565b60005b8281101562000586578489015182556001820191506020850194506020810190506200055f565b86831015620005a65784890151620005a2601f89168262000496565b8355505b6001600288020188555050505b505050505050565b613eb980620005cb6000396000f3fe608060405234801561001057600080fd5b506004361061014d5760003560e01c806370a08231116100c3578063a22cb4651161007c578063a22cb465146103c4578063b88d4fde146103e0578063c87b56dd146103fc578063d0def5211461042c578063e985e9c51461045c578063f2fde38b1461048c5761014d565b806370a08231146102ee578063715018a61461031e5780638462151c146103285780638da5cb5b1461035857806395d89b4114610376578063a0e939e9146103945761014d565b806323b872dd1161011557806323b872dd1461020a5780632f745c591461022657806342842e0e1461025657806342966c68146102725780634f6ccce71461028e5780636352211e146102be5761014d565b806301ffc9a71461015257806306fdde0314610182578063081812fc146101a0578063095ea7b3146101d057806318160ddd146101ec575b600080fd5b61016c6004803603810190610167919061274b565b6104a8565b6040516101799190612793565b60405180910390f35b61018a6104ba565b604051610197919061283e565b60405180910390f35b6101ba60048036038101906101b59190612896565b61054c565b6040516101c79190612904565b60405180910390f35b6101ea60048036038101906101e5919061294b565b610592565b005b6101f46106a9565b604051610201919061299a565b60405180910390f35b610224600480360381019061021f91906129b5565b6106b6565b005b610240600480360381019061023b919061294b565b610716565b60405161024d919061299a565b60405180910390f35b610270600480360381019061026b91906129b5565b6107bb565b005b61028c60048036038101906102879190612896565b6107db565b005b6102a860048036038101906102a39190612896565b610830565b6040516102b5919061299a565b60405180910390f35b6102d860048036038101906102d39190612896565b6108a1565b6040516102e59190612904565b60405180910390f35b61030860048036038101906103039190612a08565b610927565b604051610315919061299a565b60405180910390f35b6103266109de565b005b610342600480360381019061033d9190612a08565b6109f2565b60405161034f9190612af3565b60405180910390f35b610360610aa0565b60405161036d9190612904565b60405180910390f35b61037e610aca565b60405161038b919061283e565b60405180910390f35b6103ae60048036038101906103a99190612a08565b610b5c565b6040516103bb9190612c21565b60405180910390f35b6103de60048036038101906103d99190612c6f565b610c16565b005b6103fa60048036038101906103f59190612de4565b610c2c565b005b61041660048036038101906104119190612896565b610c8e565b604051610423919061283e565b60405180910390f35b61044660048036038101906104419190612f08565b610ca0565b604051610453919061299a565b60405180910390f35b61047660048036038101906104719190612f64565b610cd4565b6040516104839190612793565b60405180910390f35b6104a660048036038101906104a19190612a08565b610d68565b005b60006104b382610deb565b9050919050565b6060600080546104c990612fd3565b80601f01602080910402602001604051908101604052809291908181526020018280546104f590612fd3565b80156105425780601f1061051757610100808354040283529160200191610542565b820191906000526020600020905b81548152906001019060200180831161052557829003601f168201915b5050505050905090565b600061055782610e4c565b6004600083815260200190815260200160002060009054906101000a900473ffffffffffffffffffffffffffffffffffffffff169050919050565b600061059d826108a1565b90508073ffffffffffffffffffffffffffffffffffffffff168373ffffffffffffffffffffffffffffffffffffffff160361060d576040517f08c379a000000000000000000000000000000000000000000000000000000000815260040161060490613076565b60405180910390fd5b8073ffffffffffffffffffffffffffffffffffffffff1661062c610e97565b73ffffffffffffffffffffffffffffffffffffffff16148061065b575061065a81610655610e97565b610cd4565b5b61069a576040517f08c379a000000000000000000000000000000000000000000000000000000000815260040161069190613108565b60405180910390fd5b6106a48383610e9f565b505050565b6000600880549050905090565b6106c76106c1610e97565b82610f58565b610706576040517f08c379a00000000000000000000000000000000000000000000000000000000081526004016106fd9061319a565b60405180910390fd5b610711838383610fed565b505050565b600061072183610927565b8210610762576040517f08c379a00000000000000000000000000000000000000000000000000000000081526004016107599061322c565b60405180910390fd5b600660008473ffffffffffffffffffffffffffffffffffffffff1673ffffffffffffffffffffffffffffffffffffffff168152602001908152602001600020600083815260200190815260200160002054905092915050565b6107d683838360405180602001604052806000815250610c2c565b505050565b6107e53382610f58565b610824576040517f08c379a000000000000000000000000000000000000000000000000000000000815260040161081b906132be565b60405180910390fd5b61082d816112e6565b50565b600061083a6106a9565b821061087b576040517f08c379a000000000000000000000000000000000000000000000000000000000815260040161087290613350565b60405180910390fd5b6008828154811061088f5761088e613370565b5b90600052602060002001549050919050565b6000806108ad836112f2565b9050600073ffffffffffffffffffffffffffffffffffffffff168173ffffffffffffffffffffffffffffffffffffffff160361091e576040517f08c379a0000000000000000000000000000000000000000000000000000000008152600401610915906133eb565b60405180910390fd5b80915050919050565b60008073ffffffffffffffffffffffffffffffffffffffff168273ffffffffffffffffffffffffffffffffffffffff1603610997576040517f08c379a000000000000000000000000000000000000000000000000000000000815260040161098e9061347d565b60405180910390fd5b600360008373ffffffffffffffffffffffffffffffffffffffff1673ffffffffffffffffffffffffffffffffffffffff168152602001908152602001600020549050919050565b6109e661132f565b6109f060006113ad565b565b606060006109ff83610927565b905060008167ffffffffffffffff811115610a1d57610a1c612cb9565b5b604051908082528060200260200182016040528015610a4b5781602001602082028036833780820191505090505b50905060005b82811015610a9557610a638582610716565b828281518110610a7657610a75613370565b5b6020026020010181815250508080610a8d906134cc565b915050610a51565b508092505050919050565b6000600b60009054906101000a900473ffffffffffffffffffffffffffffffffffffffff16905090565b606060018054610ad990612fd3565b80601f0160208091040260200160405190810160405280929190818152602001828054610b0590612fd3565b8015610b525780601f10610b2757610100808354040283529160200191610b52565b820191906000526020600020905b815481529060010190602001808311610b3557829003601f168201915b5050505050905090565b60606000610b6983610927565b905060008167ffffffffffffffff811115610b8757610b86612cb9565b5b604051908082528060200260200182016040528015610bba57816020015b6060815260200190600190039081610ba55790505b50905060005b82811015610c0b57610bda610bd58683610716565b610c8e565b828281518110610bed57610bec613370565b5b60200260200101819052508080610c03906134cc565b915050610bc0565b508092505050919050565b610c28610c21610e97565b8383611473565b5050565b610c3d610c37610e97565b83610f58565b610c7c576040517f08c379a0000000000000000000000000000000000000000000000000000000008152600401610c739061319a565b60405180910390fd5b610c88848484846115df565b50505050565b6060610c998261163b565b9050919050565b6000610caa61132f565b6000610cb46106a9565b9050610cc0848261174d565b610cca818461196a565b8091505092915050565b6000600560008473ffffffffffffffffffffffffffffffffffffffff1673ffffffffffffffffffffffffffffffffffffffff16815260200190815260200160002060008373ffffffffffffffffffffffffffffffffffffffff1673ffffffffffffffffffffffffffffffffffffffff16815260200190815260200160002060009054906101000a900460ff16905092915050565b610d7061132f565b600073ffffffffffffffffffffffffffffffffffffffff168173ffffffffffffffffffffffffffffffffffffffff1603610ddf576040517f08c379a0000000000000000000000000000000000000000000000000000000008152600401610dd690613586565b60405180910390fd5b610de8816113ad565b50565b6000634906490660e01b7bffffffffffffffffffffffffffffffffffffffffffffffffffffffff1916827bffffffffffffffffffffffffffffffffffffffffffffffffffffffff19161480610e455750610e4482611a0e565b5b9050919050565b610e5581611a88565b610e94576040517f08c379a0000000000000000000000000000000000000000000000000000000008152600401610e8b906133eb565b60405180910390fd5b50565b600033905090565b816004600083815260200190815260200160002060006101000a81548173ffffffffffffffffffffffffffffffffffffffff021916908373ffffffffffffffffffffffffffffffffffffffff160217905550808273ffffffffffffffffffffffffffffffffffffffff16610f12836108a1565b73ffffffffffffffffffffffffffffffffffffffff167f8c5be1e5ebec7d5bd14f71427d1e84f3dd0314c0f7b2291e5b200ac8c7c3b92560405160405180910390a45050565b600080610f64836108a1565b90508073ffffffffffffffffffffffffffffffffffffffff168473ffffffffffffffffffffffffffffffffffffffff161480610fa65750610fa58185610cd4565b5b80610fe457508373ffffffffffffffffffffffffffffffffffffffff16610fcc8461054c565b73ffffffffffffffffffffffffffffffffffffffff16145b91505092915050565b8273ffffffffffffffffffffffffffffffffffffffff1661100d826108a1565b73ffffffffffffffffffffffffffffffffffffffff1614611063576040517f08c379a000000000000000000000000000000000000000000000000000000000815260040161105a90613618565b60405180910390fd5b600073ffffffffffffffffffffffffffffffffffffffff168273ffffffffffffffffffffffffffffffffffffffff16036110d2576040517f08c379a00000000000000000000000000000000000000000000000000000000081526004016110c9906136aa565b60405180910390fd5b6110df8383836001611ac9565b8273ffffffffffffffffffffffffffffffffffffffff166110ff826108a1565b73ffffffffffffffffffffffffffffffffffffffff1614611155576040517f08c379a000000000000000000000000000000000000000000000000000000000815260040161114c90613618565b60405180910390fd5b6004600082815260200190815260200160002060006101000a81549073ffffffffffffffffffffffffffffffffffffffff02191690556001600360008573ffffffffffffffffffffffffffffffffffffffff1673ffffffffffffffffffffffffffffffffffffffff168152602001908152602001600020600082825403925050819055506001600360008473ffffffffffffffffffffffffffffffffffffffff1673ffffffffffffffffffffffffffffffffffffffff16815260200190815260200160002060008282540192505081905550816002600083815260200190815260200160002060006101000a81548173ffffffffffffffffffffffffffffffffffffffff021916908373ffffffffffffffffffffffffffffffffffffffff160217905550808273ffffffffffffffffffffffffffffffffffffffff168473ffffffffffffffffffffffffffffffffffffffff167fddf252ad1be2c89b69c2b068fc378daa952ba7f163c4a11628f55a4df523b3ef60405160405180910390a46112e18383836001611adb565b505050565b6112ef81611ae1565b50565b60006002600083815260200190815260200160002060009054906101000a900473ffffffffffffffffffffffffffffffffffffffff169050919050565b611337610e97565b73ffffffffffffffffffffffffffffffffffffffff16611355610aa0565b73ffffffffffffffffffffffffffffffffffffffff16146113ab576040517f08c379a00000000000000000000000000000000000000000000000000000000081526004016113a290613716565b60405180910390fd5b565b6000600b60009054906101000a900473ffffffffffffffffffffffffffffffffffffffff16905081600b60006101000a81548173ffffffffffffffffffffffffffffffffffffffff021916908373ffffffffffffffffffffffffffffffffffffffff1602179055508173ffffffffffffffffffffffffffffffffffffffff168173ffffffffffffffffffffffffffffffffffffffff167f8be0079c531659141344cd1fd0a4f28419497f9722a3daafe3b4186f6b6457e060405160405180910390a35050565b8173ffffffffffffffffffffffffffffffffffffffff168373ffffffffffffffffffffffffffffffffffffffff16036114e1576040517f08c379a00000000000000000000000000000000000000000000000000000000081526004016114d890613782565b60405180910390fd5b80600560008573ffffffffffffffffffffffffffffffffffffffff1673ffffffffffffffffffffffffffffffffffffffff16815260200190815260200160002060008473ffffffffffffffffffffffffffffffffffffffff1673ffffffffffffffffffffffffffffffffffffffff16815260200190815260200160002060006101000a81548160ff0219169083151502179055508173ffffffffffffffffffffffffffffffffffffffff168373ffffffffffffffffffffffffffffffffffffffff167f17307eab39ab6107e8899845ad3d59bd9653f200f220920489ca2b5937696c31836040516115d29190612793565b60405180910390a3505050565b6115ea848484610fed565b6115f684848484611b34565b611635576040517f08c379a000000000000000000000000000000000000000000000000000000000815260040161162c90613814565b60405180910390fd5b50505050565b606061164682610e4c565b6000600a6000848152602001908152602001600020805461166690612fd3565b80601f016020809104026020016040519081016040528092919081815260200182805461169290612fd3565b80156116df5780601f106116b4576101008083540402835291602001916116df565b820191906000526020600020905b8154815290600101906020018083116116c257829003601f168201915b5050505050905060006116f0611cbb565b90506000815103611705578192505050611748565b60008251111561173a578082604051602001611722929190613870565b60405160208183030381529060405292505050611748565b61174384611cd2565b925050505b919050565b600073ffffffffffffffffffffffffffffffffffffffff168273ffffffffffffffffffffffffffffffffffffffff16036117bc576040517f08c379a00000000000000000000000000000000000000000000000000000000081526004016117b3906138e0565b60405180910390fd5b6117c581611a88565b15611805576040517f08c379a00000000000000000000000000000000000000000000000000000000081526004016117fc9061394c565b60405180910390fd5b611813600083836001611ac9565b61181c81611a88565b1561185c576040517f08c379a00000000000000000000000000000000000000000000000000000000081526004016118539061394c565b60405180910390fd5b6001600360008473ffffffffffffffffffffffffffffffffffffffff1673ffffffffffffffffffffffffffffffffffffffff16815260200190815260200160002060008282540192505081905550816002600083815260200190815260200160002060006101000a81548173ffffffffffffffffffffffffffffffffffffffff021916908373ffffffffffffffffffffffffffffffffffffffff160217905550808273ffffffffffffffffffffffffffffffffffffffff16600073ffffffffffffffffffffffffffffffffffffffff167fddf252ad1be2c89b69c2b068fc378daa952ba7f163c4a11628f55a4df523b3ef60405160405180910390a4611966600083836001611adb565b5050565b61197382611a88565b6119b2576040517f08c379a00000000000000000000000000000000000000000000000000000000081526004016119a9906139de565b60405180910390fd5b80600a600084815260200190815260200160002090816119d29190613baa565b507ff8e1a15aba9398e019f0b49df1a4fde98ee17ae345cb5f6b5e2c27f5033e8ce782604051611a02919061299a565b60405180910390a15050565b60007f780e9d63000000000000000000000000000000000000000000000000000000007bffffffffffffffffffffffffffffffffffffffffffffffffffffffff1916827bffffffffffffffffffffffffffffffffffffffffffffffffffffffff19161480611a815750611a8082611d3a565b5b9050919050565b60008073ffffffffffffffffffffffffffffffffffffffff16611aaa836112f2565b73ffffffffffffffffffffffffffffffffffffffff1614159050919050565b611ad584848484611e1c565b50505050565b50505050565b611aea81611f7a565b6000600a60008381526020019081526020016000208054611b0a90612fd3565b905014611b3157600a60008281526020019081526020016000206000611b309190612682565b5b50565b6000611b558473ffffffffffffffffffffffffffffffffffffffff166120c8565b15611cae578373ffffffffffffffffffffffffffffffffffffffff1663150b7a02611b7e610e97565b8786866040518563ffffffff1660e01b8152600401611ba09493929190613cd1565b6020604051808303816000875af1925050508015611bdc57506040513d601f19601f82011682018060405250810190611bd99190613d32565b60015b611c5e573d8060008114611c0c576040519150601f19603f3d011682016040523d82523d6000602084013e611c11565b606091505b506000815103611c56576040517f08c379a0000000000000000000000000000000000000000000000000000000008152600401611c4d90613814565b60405180910390fd5b805181602001fd5b63150b7a0260e01b7bffffffffffffffffffffffffffffffffffffffffffffffffffffffff1916817bffffffffffffffffffffffffffffffffffffffffffffffffffffffff191614915050611cb3565b600190505b949350505050565b606060405180602001604052806000815250905090565b6060611cdd82610e4c565b6000611ce7611cbb565b90506000815111611d075760405180602001604052806000815250611d32565b80611d11846120eb565b604051602001611d22929190613870565b6040516020818303038152906040525b915050919050565b60007f80ac58cd000000000000000000000000000000000000000000000000000000007bffffffffffffffffffffffffffffffffffffffffffffffffffffffff1916827bffffffffffffffffffffffffffffffffffffffffffffffffffffffff19161480611e0557507f5b5e139f000000000000000000000000000000000000000000000000000000007bffffffffffffffffffffffffffffffffffffffffffffffffffffffff1916827bffffffffffffffffffffffffffffffffffffffffffffffffffffffff1916145b80611e155750611e14826121b9565b5b9050919050565b611e2884848484612223565b6001811115611e6c576040517f08c379a0000000000000000000000000000000000000000000000000000000008152600401611e6390613dd1565b60405180910390fd5b6000829050600073ffffffffffffffffffffffffffffffffffffffff168573ffffffffffffffffffffffffffffffffffffffff1603611eb357611eae81612229565b611ef2565b8373ffffffffffffffffffffffffffffffffffffffff168573ffffffffffffffffffffffffffffffffffffffff1614611ef157611ef08582612272565b5b5b600073ffffffffffffffffffffffffffffffffffffffff168473ffffffffffffffffffffffffffffffffffffffff1603611f3457611f2f816123df565b611f73565b8473ffffffffffffffffffffffffffffffffffffffff168473ffffffffffffffffffffffffffffffffffffffff1614611f7257611f7184826124b0565b5b5b5050505050565b6000611f85826108a1565b9050611f95816000846001611ac9565b611f9e826108a1565b90506004600083815260200190815260200160002060006101000a81549073ffffffffffffffffffffffffffffffffffffffff02191690556001600360008373ffffffffffffffffffffffffffffffffffffffff1673ffffffffffffffffffffffffffffffffffffffff168152602001908152602001600020600082825403925050819055506002600083815260200190815260200160002060006101000a81549073ffffffffffffffffffffffffffffffffffffffff021916905581600073ffffffffffffffffffffffffffffffffffffffff168273ffffffffffffffffffffffffffffffffffffffff167fddf252ad1be2c89b69c2b068fc378daa952ba7f163c4a11628f55a4df523b3ef60405160405180910390a46120c4816000846001611adb565b5050565b6000808273ffffffffffffffffffffffffffffffffffffffff163b119050919050565b6060600060016120fa8461252f565b01905060008167ffffffffffffffff81111561211957612118612cb9565b5b6040519080825280601f01601f19166020018201604052801561214b5781602001600182028036833780820191505090505b509050600082602001820190505b6001156121ae578080600190039150507f3031323334353637383961626364656600000000000000000000000000000000600a86061a8153600a85816121a2576121a1613df1565b5b04945060008503612159575b819350505050919050565b60007f01ffc9a7000000000000000000000000000000000000000000000000000000007bffffffffffffffffffffffffffffffffffffffffffffffffffffffff1916827bffffffffffffffffffffffffffffffffffffffffffffffffffffffff1916149050919050565b50505050565b6008805490506009600083815260200190815260200160002081905550600881908060018154018082558091505060019003906000526020600020016000909190919091505550565b6000600161227f84610927565b6122899190613e20565b905060006007600084815260200190815260200160002054905081811461236e576000600660008673ffffffffffffffffffffffffffffffffffffffff1673ffffffffffffffffffffffffffffffffffffffff168152602001908152602001600020600084815260200190815260200160002054905080600660008773ffffffffffffffffffffffffffffffffffffffff1673ffffffffffffffffffffffffffffffffffffffff168152602001908152602001600020600084815260200190815260200160002081905550816007600083815260200190815260200160002081905550505b6007600084815260200190815260200160002060009055600660008573ffffffffffffffffffffffffffffffffffffffff1673ffffffffffffffffffffffffffffffffffffffff16815260200190815260200160002060008381526020019081526020016000206000905550505050565b600060016008805490506123f39190613e20565b905060006009600084815260200190815260200160002054905060006008838154811061242357612422613370565b5b90600052602060002001549050806008838154811061244557612444613370565b5b90600052602060002001819055508160096000838152602001908152602001600020819055506009600085815260200190815260200160002060009055600880548061249457612493613e54565b5b6001900381819060005260206000200160009055905550505050565b60006124bb83610927565b905081600660008573ffffffffffffffffffffffffffffffffffffffff1673ffffffffffffffffffffffffffffffffffffffff168152602001908152602001600020600083815260200190815260200160002081905550806007600084815260200190815260200160002081905550505050565b600080600090507a184f03e93ff9f4daa797ed6e38ed64bf6a1f010000000000000000831061258d577a184f03e93ff9f4daa797ed6e38ed64bf6a1f010000000000000000838161258357612582613df1565b5b0492506040810190505b6d04ee2d6d415b85acef810000000083106125ca576d04ee2d6d415b85acef810000000083816125c0576125bf613df1565b5b0492506020810190505b662386f26fc1000083106125f957662386f26fc1000083816125ef576125ee613df1565b5b0492506010810190505b6305f5e1008310612622576305f5e100838161261857612617613df1565b5b0492506008810190505b612710831061264757612710838161263d5761263c613df1565b5b0492506004810190505b6064831061266a57606483816126605761265f613df1565b5b0492506002810190505b600a8310612679576001810190505b80915050919050565b50805461268e90612fd3565b6000825580601f106126a057506126bf565b601f0160209004906000526020600020908101906126be91906126c2565b5b50565b5b808211156126db5760008160009055506001016126c3565b5090565b6000604051905090565b600080fd5b600080fd5b60007fffffffff0000000000000000000000000000000000000000000000000000000082169050919050565b612728816126f3565b811461273357600080fd5b50565b6000813590506127458161271f565b92915050565b600060208284031215612761576127606126e9565b5b600061276f84828501612736565b91505092915050565b60008115159050919050565b61278d81612778565b82525050565b60006020820190506127a86000830184612784565b92915050565b600081519050919050565b600082825260208201905092915050565b60005b838110156127e85780820151818401526020810190506127cd565b60008484015250505050565b6000601f19601f8301169050919050565b6000612810826127ae565b61281a81856127b9565b935061282a8185602086016127ca565b612833816127f4565b840191505092915050565b600060208201905081810360008301526128588184612805565b905092915050565b6000819050919050565b61287381612860565b811461287e57600080fd5b50565b6000813590506128908161286a565b92915050565b6000602082840312156128ac576128ab6126e9565b5b60006128ba84828501612881565b91505092915050565b600073ffffffffffffffffffffffffffffffffffffffff82169050919050565b60006128ee826128c3565b9050919050565b6128fe816128e3565b82525050565b600060208201905061291960008301846128f5565b92915050565b612928816128e3565b811461293357600080fd5b50565b6000813590506129458161291f565b92915050565b60008060408385031215612962576129616126e9565b5b600061297085828601612936565b925050602061298185828601612881565b9150509250929050565b61299481612860565b82525050565b60006020820190506129af600083018461298b565b92915050565b6000806000606084860312156129ce576129cd6126e9565b5b60006129dc86828701612936565b93505060206129ed86828701612936565b92505060406129fe86828701612881565b9150509250925092565b600060208284031215612a1e57612a1d6126e9565b5b6000612a2c84828501612936565b91505092915050565b600081519050919050565b600082825260208201905092915050565b6000819050602082019050919050565b612a6a81612860565b82525050565b6000612a7c8383612a61565b60208301905092915050565b6000602082019050919050565b6000612aa082612a35565b612aaa8185612a40565b9350612ab583612a51565b8060005b83811015612ae6578151612acd8882612a70565b9750612ad883612a88565b925050600181019050612ab9565b5085935050505092915050565b60006020820190508181036000830152612b0d8184612a95565b905092915050565b600081519050919050565b600082825260208201905092915050565b6000819050602082019050919050565b600082825260208201905092915050565b6000612b5d826127ae565b612b678185612b41565b9350612b778185602086016127ca565b612b80816127f4565b840191505092915050565b6000612b978383612b52565b905092915050565b6000602082019050919050565b6000612bb782612b15565b612bc18185612b20565b935083602082028501612bd385612b31565b8060005b85811015612c0f5784840389528151612bf08582612b8b565b9450612bfb83612b9f565b925060208a01995050600181019050612bd7565b50829750879550505050505092915050565b60006020820190508181036000830152612c3b8184612bac565b905092915050565b612c4c81612778565b8114612c5757600080fd5b50565b600081359050612c6981612c43565b92915050565b60008060408385031215612c8657612c856126e9565b5b6000612c9485828601612936565b9250506020612ca585828601612c5a565b9150509250929050565b600080fd5b600080fd5b7f4e487b7100000000000000000000000000000000000000000000000000000000600052604160045260246000fd5b612cf1826127f4565b810181811067ffffffffffffffff82111715612d1057612d0f612cb9565b5b80604052505050565b6000612d236126df565b9050612d2f8282612ce8565b919050565b600067ffffffffffffffff821115612d4f57612d4e612cb9565b5b612d58826127f4565b9050602081019050919050565b82818337600083830152505050565b6000612d87612d8284612d34565b612d19565b905082815260208101848484011115612da357612da2612cb4565b5b612dae848285612d65565b509392505050565b600082601f830112612dcb57612dca612caf565b5b8135612ddb848260208601612d74565b91505092915050565b60008060008060808587031215612dfe57612dfd6126e9565b5b6000612e0c87828801612936565b9450506020612e1d87828801612936565b9350506040612e2e87828801612881565b925050606085013567ffffffffffffffff811115612e4f57612e4e6126ee565b5b612e5b87828801612db6565b91505092959194509250565b600067ffffffffffffffff821115612e8257612e81612cb9565b5b612e8b826127f4565b9050602081019050919050565b6000612eab612ea684612e67565b612d19565b905082815260208101848484011115612ec757612ec6612cb4565b5b612ed2848285612d65565b509392505050565b600082601f830112612eef57612eee612caf565b5b8135612eff848260208601612e98565b91505092915050565b60008060408385031215612f1f57612f1e6126e9565b5b6000612f2d85828601612936565b925050602083013567ffffffffffffffff811115612f4e57612f4d6126ee565b5b612f5a85828601612eda565b9150509250929050565b60008060408385031215612f7b57612f7a6126e9565b5b6000612f8985828601612936565b9250506020612f9a85828601612936565b9150509250929050565b7f4e487b7100000000000000000000000000000000000000000000000000000000600052602260045260246000fd5b60006002820490506001821680612feb57607f821691505b602082108103612ffe57612ffd612fa4565b5b50919050565b7f4552433732313a20617070726f76616c20746f2063757272656e74206f776e6560008201527f7200000000000000000000000000000000000000000000000000000000000000602082015250565b60006130606021836127b9565b915061306b82613004565b604082019050919050565b6000602082019050818103600083015261308f81613053565b9050919050565b7f4552433732313a20617070726f76652063616c6c6572206973206e6f7420746f60008201527f6b656e206f776e6572206f7220617070726f76656420666f7220616c6c000000602082015250565b60006130f2603d836127b9565b91506130fd82613096565b604082019050919050565b60006020820190508181036000830152613121816130e5565b9050919050565b7f4552433732313a2063616c6c6572206973206e6f7420746f6b656e206f776e6560008201527f72206f7220617070726f76656400000000000000000000000000000000000000602082015250565b6000613184602d836127b9565b915061318f82613128565b604082019050919050565b600060208201905081810360008301526131b381613177565b9050919050565b7f455243373231456e756d657261626c653a206f776e657220696e646578206f7560008201527f74206f6620626f756e6473000000000000000000000000000000000000000000602082015250565b6000613216602b836127b9565b9150613221826131ba565b604082019050919050565b6000602082019050818103600083015261324581613209565b9050919050565b7f4b59534e46543a2063616c6c6572206973206e6f74206f776e6572206e6f722060008201527f617070726f766564000000000000000000000000000000000000000000000000602082015250565b60006132a86028836127b9565b91506132b38261324c565b604082019050919050565b600060208201905081810360008301526132d78161329b565b9050919050565b7f455243373231456e756d657261626c653a20676c6f62616c20696e646578206f60008201527f7574206f6620626f756e64730000000000000000000000000000000000000000602082015250565b600061333a602c836127b9565b9150613345826132de565b604082019050919050565b600060208201905081810360008301526133698161332d565b9050919050565b7f4e487b7100000000000000000000000000000000000000000000000000000000600052603260045260246000fd5b7f4552433732313a20696e76616c696420746f6b656e2049440000000000000000600082015250565b60006133d56018836127b9565b91506133e08261339f565b602082019050919050565b60006020820190508181036000830152613404816133c8565b9050919050565b7f4552433732313a2061646472657373207a65726f206973206e6f74206120766160008201527f6c6964206f776e65720000000000000000000000000000000000000000000000602082015250565b60006134676029836127b9565b91506134728261340b565b604082019050919050565b600060208201905081810360008301526134968161345a565b9050919050565b7f4e487b7100000000000000000000000000000000000000000000000000000000600052601160045260246000fd5b60006134d782612860565b91507fffffffffffffffffffffffffffffffffffffffffffffffffffffffffffffffff82036135095761350861349d565b5b600182019050919050565b7f4f776e61626c653a206e6577206f776e657220697320746865207a65726f206160008201527f6464726573730000000000000000000000000000000000000000000000000000602082015250565b60006135706026836127b9565b915061357b82613514565b604082019050919050565b6000602082019050818103600083015261359f81613563565b9050919050565b7f4552433732313a207472616e736665722066726f6d20696e636f72726563742060008201527f6f776e6572000000000000000000000000000000000000000000000000000000602082015250565b60006136026025836127b9565b915061360d826135a6565b604082019050919050565b60006020820190508181036000830152613631816135f5565b9050919050565b7f4552433732313a207472616e7366657220746f20746865207a65726f2061646460008201527f7265737300000000000000000000000000000000000000000000000000000000602082015250565b60006136946024836127b9565b915061369f82613638565b604082019050919050565b600060208201905081810360008301526136c381613687565b9050919050565b7f4f776e61626c653a2063616c6c6572206973206e6f7420746865206f776e6572600082015250565b60006137006020836127b9565b915061370b826136ca565b602082019050919050565b6000602082019050818103600083015261372f816136f3565b9050919050565b7f4552433732313a20617070726f766520746f2063616c6c657200000000000000600082015250565b600061376c6019836127b9565b915061377782613736565b602082019050919050565b6000602082019050818103600083015261379b8161375f565b9050919050565b7f4552433732313a207472616e7366657220746f206e6f6e20455243373231526560008201527f63656976657220696d706c656d656e7465720000000000000000000000000000602082015250565b60006137fe6032836127b9565b9150613809826137a2565b604082019050919050565b6000602082019050818103600083015261382d816137f1565b9050919050565b600081905092915050565b600061384a826127ae565b6138548185613834565b93506138648185602086016127ca565b80840191505092915050565b600061387c828561383f565b9150613888828461383f565b91508190509392505050565b7f4552433732313a206d696e7420746f20746865207a65726f2061646472657373600082015250565b60006138ca6020836127b9565b91506138d582613894565b602082019050919050565b600060208201905081810360008301526138f9816138bd565b9050919050565b7f4552433732313a20746f6b656e20616c7265616479206d696e74656400000000600082015250565b6000613936601c836127b9565b915061394182613900565b602082019050919050565b6000602082019050818103600083015261396581613929565b9050919050565b7f45524337323155524953746f726167653a2055524920736574206f66206e6f6e60008201527f6578697374656e7420746f6b656e000000000000000000000000000000000000602082015250565b60006139c8602e836127b9565b91506139d38261396c565b604082019050919050565b600060208201905081810360008301526139f7816139bb565b9050919050565b60008190508160005260206000209050919050565b60006020601f8301049050919050565b600082821b905092915050565b600060088302613a607fffffffffffffffffffffffffffffffffffffffffffffffffffffffffffffffff82613a23565b613a6a8683613a23565b95508019841693508086168417925050509392505050565b6000819050919050565b6000613aa7613aa2613a9d84612860565b613a82565b612860565b9050919050565b6000819050919050565b613ac183613a8c565b613ad5613acd82613aae565b848454613a30565b825550505050565b600090565b613aea613add565b613af5818484613ab8565b505050565b5b81811015613b1957613b0e600082613ae2565b600181019050613afb565b5050565b601f821115613b5e57613b2f816139fe565b613b3884613a13565b81016020851015613b47578190505b613b5b613b5385613a13565b830182613afa565b50505b505050565b600082821c905092915050565b6000613b8160001984600802613b63565b1980831691505092915050565b6000613b9a8383613b70565b9150826002028217905092915050565b613bb3826127ae565b67ffffffffffffffff811115613bcc57613bcb612cb9565b5b613bd68254612fd3565b613be1828285613b1d565b600060209050601f831160018114613c145760008415613c02578287015190505b613c0c8582613b8e565b865550613c74565b601f198416613c22866139fe565b60005b82811015613c4a57848901518255600182019150602085019450602081019050613c25565b86831015613c675784890151613c63601f891682613b70565b8355505b6001600288020188555050505b505050505050565b600081519050919050565b600082825260208201905092915050565b6000613ca382613c7c565b613cad8185613c87565b9350613cbd8185602086016127ca565b613cc6816127f4565b840191505092915050565b6000608082019050613ce660008301876128f5565b613cf360208301866128f5565b613d00604083018561298b565b8181036060830152613d128184613c98565b905095945050505050565b600081519050613d2c8161271f565b92915050565b600060208284031215613d4857613d476126e9565b5b6000613d5684828501613d1d565b91505092915050565b7f455243373231456e756d657261626c653a20636f6e736563757469766520747260008201527f616e7366657273206e6f7420737570706f727465640000000000000000000000602082015250565b6000613dbb6035836127b9565b9150613dc682613d5f565b604082019050919050565b60006020820190508181036000830152613dea81613dae565b9050919050565b7f4e487b7100000000000000000000000000000000000000000000000000000000600052601260045260246000fd5b6000613e2b82612860565b9150613e3683612860565b9250828203905081811115613e4e57613e4d61349d565b5b92915050565b7f4e487b7100000000000000000000000000000000000000000000000000000000600052603160045260246000fdfea26469706673582212200ce6d1fdcf6f139702d7b17f96723570eba0e5e3c5c471997123b069e6fd9e4464736f6c63430008130033",
  "immutableReferences": {},
  "source": "// SPDX-License-Identifier: MIT\r\npragma solidity >=0.4.22 <0.9.0;\r\n\r\nimport \"@openzeppelin/contracts/token/ERC721/extensions/ERC721URIStorage.sol\";\r\nimport \"@openzeppelin/contracts/token/ERC721/extensions/ERC721Enumerable.sol\";\r\nimport \"@openzeppelin/contracts/access/Ownable.sol\";\r\n\r\ncontract KYSNFT is ERC721Enumerable, ERC721URIStorage, Ownable {\r\n    constructor(\r\n        address initialOwner\r\n    ) ERC721(\"In My Sleep Easter Eggs\", \"IMS\") {}\r\n\r\n    function mint(\r\n        address to,\r\n        string memory _tokenURI\r\n    ) public onlyOwner returns (uint256) {\r\n        uint256 newTokenId = totalSupply();\r\n        _mint(to, newTokenId);\r\n        _setTokenURI(newTokenId, _tokenURI);\r\n\r\n        return newTokenId;\r\n    }\r\n\r\n    function tokenURI(\r\n        uint256 tokenId\r\n    ) public view override(ERC721, ERC721URIStorage) returns (string memory) {\r\n        return super.tokenURI(tokenId);\r\n    }\r\n\r\n    function tokensOfOwner(\r\n        address owner\r\n    ) public view returns (uint256[] memory) {\r\n        uint256 tokenCount = balanceOf(owner);\r\n        uint256[] memory tokenIds = new uint256[](tokenCount);\r\n\r\n        for (uint256 i = 0; i < tokenCount; i++) {\r\n            tokenIds[i] = tokenOfOwnerByIndex(owner, i);\r\n        }\r\n\r\n        return tokenIds;\r\n    }\r\n\r\n    function tokenURIsOfOwner(\r\n        address owner\r\n    ) public view returns (string[] memory) {\r\n        uint256 tokenCount = balanceOf(owner);\r\n        string[] memory tokenURIs = new string[](tokenCount);\r\n\r\n        for (uint256 i = 0; i < tokenCount; i++) {\r\n            tokenURIs[i] = tokenURI(tokenOfOwnerByIndex(owner, i));\r\n        }\r\n\r\n        return tokenURIs;\r\n    }\r\n\r\n    function supportsInterface(\r\n        bytes4 interfaceId\r\n    ) public view override(ERC721Enumerable, ERC721URIStorage) returns (bool) {\r\n        return super.supportsInterface(interfaceId);\r\n    }\r\n\r\n    function _beforeTokenTransfer(\r\n        address from,\r\n        address to,\r\n        uint256 tokenId,\r\n        uint256 batchSize\r\n    ) internal override(ERC721, ERC721Enumerable) {\r\n        super._beforeTokenTransfer(from, to, tokenId, batchSize);\r\n    }\r\n\r\n    function burn(uint256 tokenId) public {\r\n        require(\r\n            _isApprovedOrOwner(msg.sender, tokenId),\r\n            \"KYSNFT: caller is not owner nor approved\"\r\n        );\r\n        _burn(tokenId);\r\n    }\r\n\r\n    function _burn(\r\n        uint256 tokenId\r\n    ) internal override(ERC721, ERC721URIStorage) {\r\n        super._burn(tokenId);\r\n    }\r\n}\r\n",
  "sourcePath": "C:\\Users\\SSAFY\\Desktop\\\\S11P21E107\\blockchain\\solidity-contracts\\contracts\\KYSNFT.sol",
  "compiler": {
    "name": "solc",
    "version": "0.8.19+commit.7dd6d404.Emscripten.clang"
  },
  "schemaVersion": "3.4.16",
  "updatedAt": "2024-09-13T06:22:15.470Z",
  "networkType": "ethereum",
  "devdoc": {
    "events": {
      "Approval(address,address,uint256)": {
        "details": "Emitted when `owner` enables `approved` to manage the `tokenId` token."
      },
      "ApprovalForAll(address,address,bool)": {
        "details": "Emitted when `owner` enables or disables (`approved`) `operator` to manage all of its assets."
      },
      "BatchMetadataUpdate(uint256,uint256)": {
        "details": "This event emits when the metadata of a range of tokens is changed. So that the third-party platforms such as NFT market could timely update the images and related attributes of the NFTs."
      },
      "MetadataUpdate(uint256)": {
        "details": "This event emits when the metadata of a token is changed. So that the third-party platforms such as NFT market could timely update the images and related attributes of the NFT."
      },
      "Transfer(address,address,uint256)": {
        "details": "Emitted when `tokenId` token is transferred from `from` to `to`."
      }
    },
    "kind": "dev",
    "methods": {
      "approve(address,uint256)": {
        "details": "See {IERC721-approve}."
      },
      "balanceOf(address)": {
        "details": "See {IERC721-balanceOf}."
      },
      "getApproved(uint256)": {
        "details": "See {IERC721-getApproved}."
      },
      "isApprovedForAll(address,address)": {
        "details": "See {IERC721-isApprovedForAll}."
      },
      "name()": {
        "details": "See {IERC721Metadata-name}."
      },
      "owner()": {
        "details": "Returns the address of the current owner."
      },
      "ownerOf(uint256)": {
        "details": "See {IERC721-ownerOf}."
      },
      "renounceOwnership()": {
        "details": "Leaves the contract without owner. It will not be possible to call `onlyOwner` functions. Can only be called by the current owner. NOTE: Renouncing ownership will leave the contract without an owner, thereby disabling any functionality that is only available to the owner."
      },
      "safeTransferFrom(address,address,uint256)": {
        "details": "See {IERC721-safeTransferFrom}."
      },
      "safeTransferFrom(address,address,uint256,bytes)": {
        "details": "See {IERC721-safeTransferFrom}."
      },
      "setApprovalForAll(address,bool)": {
        "details": "See {IERC721-setApprovalForAll}."
      },
      "symbol()": {
        "details": "See {IERC721Metadata-symbol}."
      },
      "tokenByIndex(uint256)": {
        "details": "See {IERC721Enumerable-tokenByIndex}."
      },
      "tokenOfOwnerByIndex(address,uint256)": {
        "details": "See {IERC721Enumerable-tokenOfOwnerByIndex}."
      },
      "totalSupply()": {
        "details": "See {IERC721Enumerable-totalSupply}."
      },
      "transferFrom(address,address,uint256)": {
        "details": "See {IERC721-transferFrom}."
      },
      "transferOwnership(address)": {
        "details": "Transfers ownership of the contract to a new account (`newOwner`). Can only be called by the current owner."
      }
    },
    "version": 1
  },
  "userdoc": {
    "kind": "user",
    "methods": {},
    "version": 1
  }
}