{
  "contractName": "KYSNFT",
  "abi": [
    {
      "inputs": [
        {
          "internalType": "address",
          "name": "initialOwner",
          "type": "address"
        }
      ],
      "stateMutability": "nonpayable",
      "type": "constructor"
    },
    {
      "inputs": [],
      "name": "ERC721EnumerableForbiddenBatchMint",
      "type": "error"
    },
    {
      "inputs": [
        {
          "internalType": "address",
          "name": "sender",
          "type": "address"
        },
        {
          "internalType": "uint256",
          "name": "tokenId",
          "type": "uint256"
        },
        {
          "internalType": "address",
          "name": "owner",
          "type": "address"
        }
      ],
      "name": "ERC721IncorrectOwner",
      "type": "error"
    },
    {
      "inputs": [
        {
          "internalType": "address",
          "name": "operator",
          "type": "address"
        },
        {
          "internalType": "uint256",
          "name": "tokenId",
          "type": "uint256"
        }
      ],
      "name": "ERC721InsufficientApproval",
      "type": "error"
    },
    {
      "inputs": [
        {
          "internalType": "address",
          "name": "approver",
          "type": "address"
        }
      ],
      "name": "ERC721InvalidApprover",
      "type": "error"
    },
    {
      "inputs": [
        {
          "internalType": "address",
          "name": "operator",
          "type": "address"
        }
      ],
      "name": "ERC721InvalidOperator",
      "type": "error"
    },
    {
      "inputs": [
        {
          "internalType": "address",
          "name": "owner",
          "type": "address"
        }
      ],
      "name": "ERC721InvalidOwner",
      "type": "error"
    },
    {
      "inputs": [
        {
          "internalType": "address",
          "name": "receiver",
          "type": "address"
        }
      ],
      "name": "ERC721InvalidReceiver",
      "type": "error"
    },
    {
      "inputs": [
        {
          "internalType": "address",
          "name": "sender",
          "type": "address"
        }
      ],
      "name": "ERC721InvalidSender",
      "type": "error"
    },
    {
      "inputs": [
        {
          "internalType": "uint256",
          "name": "tokenId",
          "type": "uint256"
        }
      ],
      "name": "ERC721NonexistentToken",
      "type": "error"
    },
    {
      "inputs": [
        {
          "internalType": "address",
          "name": "owner",
          "type": "address"
        },
        {
          "internalType": "uint256",
          "name": "index",
          "type": "uint256"
        }
      ],
      "name": "ERC721OutOfBoundsIndex",
      "type": "error"
    },
    {
      "inputs": [
        {
          "internalType": "address",
          "name": "owner",
          "type": "address"
        }
      ],
      "name": "OwnableInvalidOwner",
      "type": "error"
    },
    {
      "inputs": [
        {
          "internalType": "address",
          "name": "account",
          "type": "address"
        }
      ],
      "name": "OwnableUnauthorizedAccount",
      "type": "error"
    },
    {
      "anonymous": false,
      "inputs": [
        {
          "indexed": true,
          "internalType": "address",
          "name": "owner",
          "type": "address"
        },
        {
          "indexed": true,
          "internalType": "address",
          "name": "approved",
          "type": "address"
        },
        {
          "indexed": true,
          "internalType": "uint256",
          "name": "tokenId",
          "type": "uint256"
        }
      ],
      "name": "Approval",
      "type": "event"
    },
    {
      "anonymous": false,
      "inputs": [
        {
          "indexed": true,
          "internalType": "address",
          "name": "owner",
          "type": "address"
        },
        {
          "indexed": true,
          "internalType": "address",
          "name": "operator",
          "type": "address"
        },
        {
          "indexed": false,
          "internalType": "bool",
          "name": "approved",
          "type": "bool"
        }
      ],
      "name": "ApprovalForAll",
      "type": "event"
    },
    {
      "anonymous": false,
      "inputs": [
        {
          "indexed": false,
          "internalType": "uint256",
          "name": "_fromTokenId",
          "type": "uint256"
        },
        {
          "indexed": false,
          "internalType": "uint256",
          "name": "_toTokenId",
          "type": "uint256"
        }
      ],
      "name": "BatchMetadataUpdate",
      "type": "event"
    },
    {
      "anonymous": false,
      "inputs": [
        {
          "indexed": false,
          "internalType": "uint256",
          "name": "_tokenId",
          "type": "uint256"
        }
      ],
      "name": "MetadataUpdate",
      "type": "event"
    },
    {
      "anonymous": false,
      "inputs": [
        {
          "indexed": true,
          "internalType": "address",
          "name": "previousOwner",
          "type": "address"
        },
        {
          "indexed": true,
          "internalType": "address",
          "name": "newOwner",
          "type": "address"
        }
      ],
      "name": "OwnershipTransferred",
      "type": "event"
    },
    {
      "anonymous": false,
      "inputs": [
        {
          "indexed": true,
          "internalType": "address",
          "name": "from",
          "type": "address"
        },
        {
          "indexed": true,
          "internalType": "address",
          "name": "to",
          "type": "address"
        },
        {
          "indexed": true,
          "internalType": "uint256",
          "name": "tokenId",
          "type": "uint256"
        }
      ],
      "name": "Transfer",
      "type": "event"
    },
    {
      "inputs": [
        {
          "internalType": "address",
          "name": "to",
          "type": "address"
        },
        {
          "internalType": "uint256",
          "name": "tokenId",
          "type": "uint256"
        }
      ],
      "name": "approve",
      "outputs": [],
      "stateMutability": "nonpayable",
      "type": "function"
    },
    {
      "inputs": [
        {
          "internalType": "address",
          "name": "owner",
          "type": "address"
        }
      ],
      "name": "balanceOf",
      "outputs": [
        {
          "internalType": "uint256",
          "name": "",
          "type": "uint256"
        }
      ],
      "stateMutability": "view",
      "type": "function"
    },
    {
      "inputs": [
        {
          "internalType": "uint256",
          "name": "tokenId",
          "type": "uint256"
        }
      ],
      "name": "getApproved",
      "outputs": [
        {
          "internalType": "address",
          "name": "",
          "type": "address"
        }
      ],
      "stateMutability": "view",
      "type": "function"
    },
    {
      "inputs": [
        {
          "internalType": "address",
          "name": "owner",
          "type": "address"
        },
        {
          "internalType": "address",
          "name": "operator",
          "type": "address"
        }
      ],
      "name": "isApprovedForAll",
      "outputs": [
        {
          "internalType": "bool",
          "name": "",
          "type": "bool"
        }
      ],
      "stateMutability": "view",
      "type": "function"
    },
    {
      "inputs": [],
      "name": "name",
      "outputs": [
        {
          "internalType": "string",
          "name": "",
          "type": "string"
        }
      ],
      "stateMutability": "view",
      "type": "function"
    },
    {
      "inputs": [],
      "name": "owner",
      "outputs": [
        {
          "internalType": "address",
          "name": "",
          "type": "address"
        }
      ],
      "stateMutability": "view",
      "type": "function"
    },
    {
      "inputs": [
        {
          "internalType": "uint256",
          "name": "tokenId",
          "type": "uint256"
        }
      ],
      "name": "ownerOf",
      "outputs": [
        {
          "internalType": "address",
          "name": "",
          "type": "address"
        }
      ],
      "stateMutability": "view",
      "type": "function"
    },
    {
      "inputs": [],
      "name": "renounceOwnership",
      "outputs": [],
      "stateMutability": "nonpayable",
      "type": "function"
    },
    {
      "inputs": [
        {
          "internalType": "address",
          "name": "from",
          "type": "address"
        },
        {
          "internalType": "address",
          "name": "to",
          "type": "address"
        },
        {
          "internalType": "uint256",
          "name": "tokenId",
          "type": "uint256"
        }
      ],
      "name": "safeTransferFrom",
      "outputs": [],
      "stateMutability": "nonpayable",
      "type": "function"
    },
    {
      "inputs": [
        {
          "internalType": "address",
          "name": "from",
          "type": "address"
        },
        {
          "internalType": "address",
          "name": "to",
          "type": "address"
        },
        {
          "internalType": "uint256",
          "name": "tokenId",
          "type": "uint256"
        },
        {
          "internalType": "bytes",
          "name": "data",
          "type": "bytes"
        }
      ],
      "name": "safeTransferFrom",
      "outputs": [],
      "stateMutability": "nonpayable",
      "type": "function"
    },
    {
      "inputs": [
        {
          "internalType": "address",
          "name": "operator",
          "type": "address"
        },
        {
          "internalType": "bool",
          "name": "approved",
          "type": "bool"
        }
      ],
      "name": "setApprovalForAll",
      "outputs": [],
      "stateMutability": "nonpayable",
      "type": "function"
    },
    {
      "inputs": [],
      "name": "symbol",
      "outputs": [
        {
          "internalType": "string",
          "name": "",
          "type": "string"
        }
      ],
      "stateMutability": "view",
      "type": "function"
    },
    {
      "inputs": [
        {
          "internalType": "uint256",
          "name": "index",
          "type": "uint256"
        }
      ],
      "name": "tokenByIndex",
      "outputs": [
        {
          "internalType": "uint256",
          "name": "",
          "type": "uint256"
        }
      ],
      "stateMutability": "view",
      "type": "function"
    },
    {
      "inputs": [
        {
          "internalType": "address",
          "name": "owner",
          "type": "address"
        },
        {
          "internalType": "uint256",
          "name": "index",
          "type": "uint256"
        }
      ],
      "name": "tokenOfOwnerByIndex",
      "outputs": [
        {
          "internalType": "uint256",
          "name": "",
          "type": "uint256"
        }
      ],
      "stateMutability": "view",
      "type": "function"
    },
    {
      "inputs": [],
      "name": "totalSupply",
      "outputs": [
        {
          "internalType": "uint256",
          "name": "",
          "type": "uint256"
        }
      ],
      "stateMutability": "view",
      "type": "function"
    },
    {
      "inputs": [
        {
          "internalType": "address",
          "name": "from",
          "type": "address"
        },
        {
          "internalType": "address",
          "name": "to",
          "type": "address"
        },
        {
          "internalType": "uint256",
          "name": "tokenId",
          "type": "uint256"
        }
      ],
      "name": "transferFrom",
      "outputs": [],
      "stateMutability": "nonpayable",
      "type": "function"
    },
    {
      "inputs": [
        {
          "internalType": "address",
          "name": "newOwner",
          "type": "address"
        }
      ],
      "name": "transferOwnership",
      "outputs": [],
      "stateMutability": "nonpayable",
      "type": "function"
    },
    {
      "inputs": [
        {
          "internalType": "address",
          "name": "to",
          "type": "address"
        },
        {
          "internalType": "string",
          "name": "_tokenURI",
          "type": "string"
        }
      ],
      "name": "mint",
      "outputs": [
        {
          "internalType": "uint256",
          "name": "",
          "type": "uint256"
        }
      ],
      "stateMutability": "nonpayable",
      "type": "function"
    },
    {
      "inputs": [
        {
          "internalType": "uint256",
          "name": "tokenId",
          "type": "uint256"
        }
      ],
      "name": "tokenURI",
      "outputs": [
        {
          "internalType": "string",
          "name": "",
          "type": "string"
        }
      ],
      "stateMutability": "view",
      "type": "function"
    },
    {
      "inputs": [
        {
          "internalType": "address",
          "name": "owner",
          "type": "address"
        }
      ],
      "name": "tokensOfOwner",
      "outputs": [
        {
          "internalType": "uint256[]",
          "name": "",
          "type": "uint256[]"
        }
      ],
      "stateMutability": "view",
      "type": "function"
    },
    {
      "inputs": [
        {
          "internalType": "bytes4",
          "name": "interfaceId",
          "type": "bytes4"
        }
      ],
      "name": "supportsInterface",
      "outputs": [
        {
          "internalType": "bool",
          "name": "",
          "type": "bool"
        }
      ],
      "stateMutability": "view",
      "type": "function"
    }
  ],
  "bytecode": "0x608060405234801562000010575f80fd5b506040516200342f3803806200342f83398181016040528101906200003691906200027c565b806040518060400160405280601781526020017f496e204d7920536c6565702045617374657220456767730000000000000000008152506040518060400160405280600381526020017f494d530000000000000000000000000000000000000000000000000000000000815250815f9081620000b3919062000510565b508060019081620000c5919062000510565b5050505f73ffffffffffffffffffffffffffffffffffffffff168173ffffffffffffffffffffffffffffffffffffffff16036200013b575f6040517f1e4fbdf700000000000000000000000000000000000000000000000000000000815260040162000132919062000605565b60405180910390fd5b6200014c816200015460201b60201c565b505062000620565b5f600b5f9054906101000a900473ffffffffffffffffffffffffffffffffffffffff16905081600b5f6101000a81548173ffffffffffffffffffffffffffffffffffffffff021916908373ffffffffffffffffffffffffffffffffffffffff1602179055508173ffffffffffffffffffffffffffffffffffffffff168173ffffffffffffffffffffffffffffffffffffffff167f8be0079c531659141344cd1fd0a4f28419497f9722a3daafe3b4186f6b6457e060405160405180910390a35050565b5f80fd5b5f73ffffffffffffffffffffffffffffffffffffffff82169050919050565b5f62000246826200021b565b9050919050565b62000258816200023a565b811462000263575f80fd5b50565b5f8151905062000276816200024d565b92915050565b5f6020828403121562000294576200029362000217565b5b5f620002a38482850162000266565b91505092915050565b5f81519050919050565b7f4e487b71000000000000000000000000000000000000000000000000000000005f52604160045260245ffd5b7f4e487b71000000000000000000000000000000000000000000000000000000005f52602260045260245ffd5b5f60028204905060018216806200032857607f821691505b6020821081036200033e576200033d620002e3565b5b50919050565b5f819050815f5260205f209050919050565b5f6020601f8301049050919050565b5f82821b905092915050565b5f60088302620003a27fffffffffffffffffffffffffffffffffffffffffffffffffffffffffffffffff8262000365565b620003ae868362000365565b95508019841693508086168417925050509392505050565b5f819050919050565b5f819050919050565b5f620003f8620003f2620003ec84620003c6565b620003cf565b620003c6565b9050919050565b5f819050919050565b6200041383620003d8565b6200042b6200042282620003ff565b84845462000371565b825550505050565b5f90565b6200044162000433565b6200044e81848462000408565b505050565b5b818110156200047557620004695f8262000437565b60018101905062000454565b5050565b601f821115620004c4576200048e8162000344565b620004998462000356565b81016020851015620004a9578190505b620004c1620004b88562000356565b83018262000453565b50505b505050565b5f82821c905092915050565b5f620004e65f1984600802620004c9565b1980831691505092915050565b5f620005008383620004d5565b9150826002028217905092915050565b6200051b82620002ac565b67ffffffffffffffff811115620005375762000536620002b6565b5b62000543825462000310565b6200055082828562000479565b5f60209050601f83116001811462000586575f841562000571578287015190505b6200057d8582620004f3565b865550620005ec565b601f198416620005968662000344565b5f5b82811015620005bf5784890151825560018201915060208501945060208101905062000598565b86831015620005df5784890151620005db601f891682620004d5565b8355505b6001600288020188555050505b505050505050565b620005ff816200023a565b82525050565b5f6020820190506200061a5f830184620005f4565b92915050565b612e01806200062e5f395ff3fe608060405234801561000f575f80fd5b5060043610610135575f3560e01c806370a08231116100b6578063a22cb4651161007a578063a22cb4651461035f578063b88d4fde1461037b578063c87b56dd14610397578063d0def521146103c7578063e985e9c5146103f7578063f2fde38b1461042757610135565b806370a08231146102b9578063715018a6146102e95780638462151c146102f35780638da5cb5b1461032357806395d89b411461034157610135565b806323b872dd116100fd57806323b872dd146101f15780632f745c591461020d57806342842e0e1461023d5780634f6ccce7146102595780636352211e1461028957610135565b806301ffc9a71461013957806306fdde0314610169578063081812fc14610187578063095ea7b3146101b757806318160ddd146101d3575b5f80fd5b610153600480360381019061014e9190612156565b610443565b604051610160919061219b565b60405180910390f35b610171610454565b60405161017e919061223e565b60405180910390f35b6101a1600480360381019061019c9190612291565b6104e3565b6040516101ae91906122fb565b60405180910390f35b6101d160048036038101906101cc919061233e565b6104fe565b005b6101db610514565b6040516101e8919061238b565b60405180910390f35b61020b600480360381019061020691906123a4565b610520565b005b6102276004803603810190610222919061233e565b61061f565b604051610234919061238b565b60405180910390f35b610257600480360381019061025291906123a4565b6106c3565b005b610273600480360381019061026e9190612291565b6106e2565b604051610280919061238b565b60405180910390f35b6102a3600480360381019061029e9190612291565b610754565b6040516102b091906122fb565b60405180910390f35b6102d360048036038101906102ce91906123f4565b610765565b6040516102e0919061238b565b60405180910390f35b6102f161081b565b005b61030d600480360381019061030891906123f4565b61082e565b60405161031a91906124d6565b60405180910390f35b61032b6108d9565b60405161033891906122fb565b60405180910390f35b610349610901565b604051610356919061223e565b60405180910390f35b61037960048036038101906103749190612520565b610991565b005b6103956004803603810190610390919061268a565b6109a7565b005b6103b160048036038101906103ac9190612291565b6109c4565b6040516103be919061223e565b60405180910390f35b6103e160048036038101906103dc91906127a8565b6109d6565b6040516103ee919061238b565b60405180910390f35b610411600480360381019061040c9190612802565b610a08565b60405161041e919061219b565b60405180910390f35b610441600480360381019061043c91906123f4565b610a96565b005b5f61044d82610b1a565b9050919050565b60605f80546104629061286d565b80601f016020809104026020016040519081016040528092919081815260200182805461048e9061286d565b80156104d95780601f106104b0576101008083540402835291602001916104d9565b820191905f5260205f20905b8154815290600101906020018083116104bc57829003601f168201915b5050505050905090565b5f6104ed82610b7a565b506104f782610c00565b9050919050565b610510828261050b610c39565b610c40565b5050565b5f600880549050905090565b5f73ffffffffffffffffffffffffffffffffffffffff168273ffffffffffffffffffffffffffffffffffffffff1603610590575f6040517f64a0ae9200000000000000000000000000000000000000000000000000000000815260040161058791906122fb565b60405180910390fd5b5f6105a3838361059e610c39565b610c52565b90508373ffffffffffffffffffffffffffffffffffffffff168173ffffffffffffffffffffffffffffffffffffffff1614610619578382826040517f64283d7b0000000000000000000000000000000000000000000000000000000081526004016106109392919061289d565b60405180910390fd5b50505050565b5f61062983610765565b821061066e5782826040517fa57d13dc0000000000000000000000000000000000000000000000000000000081526004016106659291906128d2565b60405180910390fd5b60065f8473ffffffffffffffffffffffffffffffffffffffff1673ffffffffffffffffffffffffffffffffffffffff1681526020019081526020015f205f8381526020019081526020015f2054905092915050565b6106dd83838360405180602001604052805f8152506109a7565b505050565b5f6106eb610514565b8210610730575f826040517fa57d13dc0000000000000000000000000000000000000000000000000000000081526004016107279291906128d2565b60405180910390fd5b60088281548110610744576107436128f9565b5b905f5260205f2001549050919050565b5f61075e82610b7a565b9050919050565b5f8073ffffffffffffffffffffffffffffffffffffffff168273ffffffffffffffffffffffffffffffffffffffff16036107d6575f6040517f89c62b640000000000000000000000000000000000000000000000000000000081526004016107cd91906122fb565b60405180910390fd5b60035f8373ffffffffffffffffffffffffffffffffffffffff1673ffffffffffffffffffffffffffffffffffffffff1681526020019081526020015f20549050919050565b610823610c67565b61082c5f610cee565b565b60605f61083a83610765565b90505f8167ffffffffffffffff81111561085757610856612566565b5b6040519080825280602002602001820160405280156108855781602001602082028036833780820191505090505b5090505f5b828110156108ce5761089c858261061f565b8282815181106108af576108ae6128f9565b5b60200260200101818152505080806108c690612953565b91505061088a565b508092505050919050565b5f600b5f9054906101000a900473ffffffffffffffffffffffffffffffffffffffff16905090565b6060600180546109109061286d565b80601f016020809104026020016040519081016040528092919081815260200182805461093c9061286d565b80156109875780601f1061095e57610100808354040283529160200191610987565b820191905f5260205f20905b81548152906001019060200180831161096a57829003601f168201915b5050505050905090565b6109a361099c610c39565b8383610db1565b5050565b6109b2848484610520565b6109be84848484610f1a565b50505050565b60606109cf826110cc565b9050919050565b5f6109df610c67565b5f6109e8610514565b90506109f484826111d7565b6109fe81846112ca565b8091505092915050565b5f60055f8473ffffffffffffffffffffffffffffffffffffffff1673ffffffffffffffffffffffffffffffffffffffff1681526020019081526020015f205f8373ffffffffffffffffffffffffffffffffffffffff1673ffffffffffffffffffffffffffffffffffffffff1681526020019081526020015f205f9054906101000a900460ff16905092915050565b610a9e610c67565b5f73ffffffffffffffffffffffffffffffffffffffff168173ffffffffffffffffffffffffffffffffffffffff1603610b0e575f6040517f1e4fbdf7000000000000000000000000000000000000000000000000000000008152600401610b0591906122fb565b60405180910390fd5b610b1781610cee565b50565b5f634906490660e01b7bffffffffffffffffffffffffffffffffffffffffffffffffffffffff1916827bffffffffffffffffffffffffffffffffffffffffffffffffffffffff19161480610b735750610b7282611324565b5b9050919050565b5f80610b858361139d565b90505f73ffffffffffffffffffffffffffffffffffffffff168173ffffffffffffffffffffffffffffffffffffffff1603610bf757826040517f7e273289000000000000000000000000000000000000000000000000000000008152600401610bee919061238b565b60405180910390fd5b80915050919050565b5f60045f8381526020019081526020015f205f9054906101000a900473ffffffffffffffffffffffffffffffffffffffff169050919050565b5f33905090565b610c4d83838360016113d6565b505050565b5f610c5e848484611595565b90509392505050565b610c6f610c39565b73ffffffffffffffffffffffffffffffffffffffff16610c8d6108d9565b73ffffffffffffffffffffffffffffffffffffffff1614610cec57610cb0610c39565b6040517f118cdaa7000000000000000000000000000000000000000000000000000000008152600401610ce391906122fb565b60405180910390fd5b565b5f600b5f9054906101000a900473ffffffffffffffffffffffffffffffffffffffff16905081600b5f6101000a81548173ffffffffffffffffffffffffffffffffffffffff021916908373ffffffffffffffffffffffffffffffffffffffff1602179055508173ffffffffffffffffffffffffffffffffffffffff168173ffffffffffffffffffffffffffffffffffffffff167f8be0079c531659141344cd1fd0a4f28419497f9722a3daafe3b4186f6b6457e060405160405180910390a35050565b5f73ffffffffffffffffffffffffffffffffffffffff168273ffffffffffffffffffffffffffffffffffffffff1603610e2157816040517f5b08ba18000000000000000000000000000000000000000000000000000000008152600401610e1891906122fb565b60405180910390fd5b8060055f8573ffffffffffffffffffffffffffffffffffffffff1673ffffffffffffffffffffffffffffffffffffffff1681526020019081526020015f205f8473ffffffffffffffffffffffffffffffffffffffff1673ffffffffffffffffffffffffffffffffffffffff1681526020019081526020015f205f6101000a81548160ff0219169083151502179055508173ffffffffffffffffffffffffffffffffffffffff168373ffffffffffffffffffffffffffffffffffffffff167f17307eab39ab6107e8899845ad3d59bd9653f200f220920489ca2b5937696c3183604051610f0d919061219b565b60405180910390a3505050565b5f8373ffffffffffffffffffffffffffffffffffffffff163b11156110c6578273ffffffffffffffffffffffffffffffffffffffff1663150b7a02610f5d610c39565b8685856040518563ffffffff1660e01b8152600401610f7f94939291906129ec565b6020604051808303815f875af1925050508015610fba57506040513d601f19601f82011682018060405250810190610fb79190612a4a565b60015b61103b573d805f8114610fe8576040519150601f19603f3d011682016040523d82523d5f602084013e610fed565b606091505b505f81510361103357836040517f64a0ae9200000000000000000000000000000000000000000000000000000000815260040161102a91906122fb565b60405180910390fd5b805181602001fd5b63150b7a0260e01b7bffffffffffffffffffffffffffffffffffffffffffffffffffffffff1916817bffffffffffffffffffffffffffffffffffffffffffffffffffffffff1916146110c457836040517f64a0ae920000000000000000000000000000000000000000000000000000000081526004016110bb91906122fb565b60405180910390fd5b505b50505050565b60606110d782610b7a565b505f600a5f8481526020019081526020015f2080546110f59061286d565b80601f01602080910402602001604051908101604052809291908181526020018280546111219061286d565b801561116c5780601f106111435761010080835404028352916020019161116c565b820191905f5260205f20905b81548152906001019060200180831161114f57829003601f168201915b505050505090505f61117c6116af565b90505f8151036111905781925050506111d2565b5f825111156111c45780826040516020016111ac929190612aaf565b604051602081830303815290604052925050506111d2565b6111cd846116c5565b925050505b919050565b5f73ffffffffffffffffffffffffffffffffffffffff168273ffffffffffffffffffffffffffffffffffffffff1603611247575f6040517f64a0ae9200000000000000000000000000000000000000000000000000000000815260040161123e91906122fb565b60405180910390fd5b5f61125383835f610c52565b90505f73ffffffffffffffffffffffffffffffffffffffff168173ffffffffffffffffffffffffffffffffffffffff16146112c5575f6040517f73c6ac6e0000000000000000000000000000000000000000000000000000000081526004016112bc91906122fb565b60405180910390fd5b505050565b80600a5f8481526020019081526020015f2090816112e89190612c6f565b507ff8e1a15aba9398e019f0b49df1a4fde98ee17ae345cb5f6b5e2c27f5033e8ce782604051611318919061238b565b60405180910390a15050565b5f7f780e9d63000000000000000000000000000000000000000000000000000000007bffffffffffffffffffffffffffffffffffffffffffffffffffffffff1916827bffffffffffffffffffffffffffffffffffffffffffffffffffffffff1916148061139657506113958261172b565b5b9050919050565b5f60025f8381526020019081526020015f205f9054906101000a900473ffffffffffffffffffffffffffffffffffffffff169050919050565b808061140e57505f73ffffffffffffffffffffffffffffffffffffffff168273ffffffffffffffffffffffffffffffffffffffff1614155b15611540575f61141d84610b7a565b90505f73ffffffffffffffffffffffffffffffffffffffff168373ffffffffffffffffffffffffffffffffffffffff161415801561148757508273ffffffffffffffffffffffffffffffffffffffff168173ffffffffffffffffffffffffffffffffffffffff1614155b801561149a57506114988184610a08565b155b156114dc57826040517fa9fbf51f0000000000000000000000000000000000000000000000000000000081526004016114d391906122fb565b60405180910390fd5b811561153e57838573ffffffffffffffffffffffffffffffffffffffff168273ffffffffffffffffffffffffffffffffffffffff167f8c5be1e5ebec7d5bd14f71427d1e84f3dd0314c0f7b2291e5b200ac8c7c3b92560405160405180910390a45b505b8360045f8581526020019081526020015f205f6101000a81548173ffffffffffffffffffffffffffffffffffffffff021916908373ffffffffffffffffffffffffffffffffffffffff16021790555050505050565b5f806115a285858561180c565b90505f73ffffffffffffffffffffffffffffffffffffffff168173ffffffffffffffffffffffffffffffffffffffff16036115e5576115e084611a17565b611624565b8473ffffffffffffffffffffffffffffffffffffffff168173ffffffffffffffffffffffffffffffffffffffff1614611623576116228185611a5b565b5b5b5f73ffffffffffffffffffffffffffffffffffffffff168573ffffffffffffffffffffffffffffffffffffffff16036116655761166084611ba5565b6116a4565b8473ffffffffffffffffffffffffffffffffffffffff168173ffffffffffffffffffffffffffffffffffffffff16146116a3576116a28585611c65565b5b5b809150509392505050565b606060405180602001604052805f815250905090565b60606116d082610b7a565b505f6116da6116af565b90505f8151116116f85760405180602001604052805f815250611723565b8061170284611ce9565b604051602001611713929190612aaf565b6040516020818303038152906040525b915050919050565b5f7f80ac58cd000000000000000000000000000000000000000000000000000000007bffffffffffffffffffffffffffffffffffffffffffffffffffffffff1916827bffffffffffffffffffffffffffffffffffffffffffffffffffffffff191614806117f557507f5b5e139f000000000000000000000000000000000000000000000000000000007bffffffffffffffffffffffffffffffffffffffffffffffffffffffff1916827bffffffffffffffffffffffffffffffffffffffffffffffffffffffff1916145b80611805575061180482611db3565b5b9050919050565b5f806118178461139d565b90505f73ffffffffffffffffffffffffffffffffffffffff168373ffffffffffffffffffffffffffffffffffffffff161461185857611857818486611e1c565b5b5f73ffffffffffffffffffffffffffffffffffffffff168173ffffffffffffffffffffffffffffffffffffffff16146118e3576118975f855f806113d6565b600160035f8373ffffffffffffffffffffffffffffffffffffffff1673ffffffffffffffffffffffffffffffffffffffff1681526020019081526020015f205f82825403925050819055505b5f73ffffffffffffffffffffffffffffffffffffffff168573ffffffffffffffffffffffffffffffffffffffff161461196257600160035f8773ffffffffffffffffffffffffffffffffffffffff1673ffffffffffffffffffffffffffffffffffffffff1681526020019081526020015f205f82825401925050819055505b8460025f8681526020019081526020015f205f6101000a81548173ffffffffffffffffffffffffffffffffffffffff021916908373ffffffffffffffffffffffffffffffffffffffff160217905550838573ffffffffffffffffffffffffffffffffffffffff168273ffffffffffffffffffffffffffffffffffffffff167fddf252ad1be2c89b69c2b068fc378daa952ba7f163c4a11628f55a4df523b3ef60405160405180910390a4809150509392505050565b60088054905060095f8381526020019081526020015f2081905550600881908060018154018082558091505060019003905f5260205f20015f909190919091505550565b5f611a6583610765565b90505f60075f8481526020019081526020015f20549050818114611b3c575f60065f8673ffffffffffffffffffffffffffffffffffffffff1673ffffffffffffffffffffffffffffffffffffffff1681526020019081526020015f205f8481526020019081526020015f205490508060065f8773ffffffffffffffffffffffffffffffffffffffff1673ffffffffffffffffffffffffffffffffffffffff1681526020019081526020015f205f8481526020019081526020015f20819055508160075f8381526020019081526020015f2081905550505b60075f8481526020019081526020015f205f905560065f8573ffffffffffffffffffffffffffffffffffffffff1673ffffffffffffffffffffffffffffffffffffffff1681526020019081526020015f205f8381526020019081526020015f205f905550505050565b5f6001600880549050611bb89190612d3e565b90505f60095f8481526020019081526020015f205490505f60088381548110611be457611be36128f9565b5b905f5260205f20015490508060088381548110611c0457611c036128f9565b5b905f5260205f2001819055508160095f8381526020019081526020015f208190555060095f8581526020019081526020015f205f90556008805480611c4c57611c4b612d71565b5b600190038181905f5260205f20015f9055905550505050565b5f6001611c7184610765565b611c7b9190612d3e565b90508160065f8573ffffffffffffffffffffffffffffffffffffffff1673ffffffffffffffffffffffffffffffffffffffff1681526020019081526020015f205f8381526020019081526020015f20819055508060075f8481526020019081526020015f2081905550505050565b60605f6001611cf784611edf565b0190505f8167ffffffffffffffff811115611d1557611d14612566565b5b6040519080825280601f01601f191660200182016040528015611d475781602001600182028036833780820191505090505b5090505f82602001820190505b600115611da8578080600190039150507f3031323334353637383961626364656600000000000000000000000000000000600a86061a8153600a8581611d9d57611d9c612d9e565b5b0494505f8503611d54575b819350505050919050565b5f7f01ffc9a7000000000000000000000000000000000000000000000000000000007bffffffffffffffffffffffffffffffffffffffffffffffffffffffff1916827bffffffffffffffffffffffffffffffffffffffffffffffffffffffff1916149050919050565b611e27838383612030565b611eda575f73ffffffffffffffffffffffffffffffffffffffff168373ffffffffffffffffffffffffffffffffffffffff1603611e9b57806040517f7e273289000000000000000000000000000000000000000000000000000000008152600401611e92919061238b565b60405180910390fd5b81816040517f177e802f000000000000000000000000000000000000000000000000000000008152600401611ed19291906128d2565b60405180910390fd5b505050565b5f805f90507a184f03e93ff9f4daa797ed6e38ed64bf6a1f0100000000000000008310611f3b577a184f03e93ff9f4daa797ed6e38ed64bf6a1f0100000000000000008381611f3157611f30612d9e565b5b0492506040810190505b6d04ee2d6d415b85acef81000000008310611f78576d04ee2d6d415b85acef81000000008381611f6e57611f6d612d9e565b5b0492506020810190505b662386f26fc100008310611fa757662386f26fc100008381611f9d57611f9c612d9e565b5b0492506010810190505b6305f5e1008310611fd0576305f5e1008381611fc657611fc5612d9e565b5b0492506008810190505b6127108310611ff5576127108381611feb57611fea612d9e565b5b0492506004810190505b60648310612018576064838161200e5761200d612d9e565b5b0492506002810190505b600a8310612027576001810190505b80915050919050565b5f8073ffffffffffffffffffffffffffffffffffffffff168373ffffffffffffffffffffffffffffffffffffffff16141580156120e757508273ffffffffffffffffffffffffffffffffffffffff168473ffffffffffffffffffffffffffffffffffffffff1614806120a857506120a78484610a08565b5b806120e657508273ffffffffffffffffffffffffffffffffffffffff166120ce83610c00565b73ffffffffffffffffffffffffffffffffffffffff16145b5b90509392505050565b5f604051905090565b5f80fd5b5f80fd5b5f7fffffffff0000000000000000000000000000000000000000000000000000000082169050919050565b61213581612101565b811461213f575f80fd5b50565b5f813590506121508161212c565b92915050565b5f6020828403121561216b5761216a6120f9565b5b5f61217884828501612142565b91505092915050565b5f8115159050919050565b61219581612181565b82525050565b5f6020820190506121ae5f83018461218c565b92915050565b5f81519050919050565b5f82825260208201905092915050565b5f5b838110156121eb5780820151818401526020810190506121d0565b5f8484015250505050565b5f601f19601f8301169050919050565b5f612210826121b4565b61221a81856121be565b935061222a8185602086016121ce565b612233816121f6565b840191505092915050565b5f6020820190508181035f8301526122568184612206565b905092915050565b5f819050919050565b6122708161225e565b811461227a575f80fd5b50565b5f8135905061228b81612267565b92915050565b5f602082840312156122a6576122a56120f9565b5b5f6122b38482850161227d565b91505092915050565b5f73ffffffffffffffffffffffffffffffffffffffff82169050919050565b5f6122e5826122bc565b9050919050565b6122f5816122db565b82525050565b5f60208201905061230e5f8301846122ec565b92915050565b61231d816122db565b8114612327575f80fd5b50565b5f8135905061233881612314565b92915050565b5f8060408385031215612354576123536120f9565b5b5f6123618582860161232a565b92505060206123728582860161227d565b9150509250929050565b6123858161225e565b82525050565b5f60208201905061239e5f83018461237c565b92915050565b5f805f606084860312156123bb576123ba6120f9565b5b5f6123c88682870161232a565b93505060206123d98682870161232a565b92505060406123ea8682870161227d565b9150509250925092565b5f60208284031215612409576124086120f9565b5b5f6124168482850161232a565b91505092915050565b5f81519050919050565b5f82825260208201905092915050565b5f819050602082019050919050565b6124518161225e565b82525050565b5f6124628383612448565b60208301905092915050565b5f602082019050919050565b5f6124848261241f565b61248e8185612429565b935061249983612439565b805f5b838110156124c95781516124b08882612457565b97506124bb8361246e565b92505060018101905061249c565b5085935050505092915050565b5f6020820190508181035f8301526124ee818461247a565b905092915050565b6124ff81612181565b8114612509575f80fd5b50565b5f8135905061251a816124f6565b92915050565b5f8060408385031215612536576125356120f9565b5b5f6125438582860161232a565b92505060206125548582860161250c565b9150509250929050565b5f80fd5b5f80fd5b7f4e487b71000000000000000000000000000000000000000000000000000000005f52604160045260245ffd5b61259c826121f6565b810181811067ffffffffffffffff821117156125bb576125ba612566565b5b80604052505050565b5f6125cd6120f0565b90506125d98282612593565b919050565b5f67ffffffffffffffff8211156125f8576125f7612566565b5b612601826121f6565b9050602081019050919050565b828183375f83830152505050565b5f61262e612629846125de565b6125c4565b90508281526020810184848401111561264a57612649612562565b5b61265584828561260e565b509392505050565b5f82601f8301126126715761267061255e565b5b813561268184826020860161261c565b91505092915050565b5f805f80608085870312156126a2576126a16120f9565b5b5f6126af8782880161232a565b94505060206126c08782880161232a565b93505060406126d18782880161227d565b925050606085013567ffffffffffffffff8111156126f2576126f16120fd565b5b6126fe8782880161265d565b91505092959194509250565b5f67ffffffffffffffff82111561272457612723612566565b5b61272d826121f6565b9050602081019050919050565b5f61274c6127478461270a565b6125c4565b90508281526020810184848401111561276857612767612562565b5b61277384828561260e565b509392505050565b5f82601f83011261278f5761278e61255e565b5b813561279f84826020860161273a565b91505092915050565b5f80604083850312156127be576127bd6120f9565b5b5f6127cb8582860161232a565b925050602083013567ffffffffffffffff8111156127ec576127eb6120fd565b5b6127f88582860161277b565b9150509250929050565b5f8060408385031215612818576128176120f9565b5b5f6128258582860161232a565b92505060206128368582860161232a565b9150509250929050565b7f4e487b71000000000000000000000000000000000000000000000000000000005f52602260045260245ffd5b5f600282049050600182168061288457607f821691505b60208210810361289757612896612840565b5b50919050565b5f6060820190506128b05f8301866122ec565b6128bd602083018561237c565b6128ca60408301846122ec565b949350505050565b5f6040820190506128e55f8301856122ec565b6128f2602083018461237c565b9392505050565b7f4e487b71000000000000000000000000000000000000000000000000000000005f52603260045260245ffd5b7f4e487b71000000000000000000000000000000000000000000000000000000005f52601160045260245ffd5b5f61295d8261225e565b91507fffffffffffffffffffffffffffffffffffffffffffffffffffffffffffffffff820361298f5761298e612926565b5b600182019050919050565b5f81519050919050565b5f82825260208201905092915050565b5f6129be8261299a565b6129c881856129a4565b93506129d88185602086016121ce565b6129e1816121f6565b840191505092915050565b5f6080820190506129ff5f8301876122ec565b612a0c60208301866122ec565b612a19604083018561237c565b8181036060830152612a2b81846129b4565b905095945050505050565b5f81519050612a448161212c565b92915050565b5f60208284031215612a5f57612a5e6120f9565b5b5f612a6c84828501612a36565b91505092915050565b5f81905092915050565b5f612a89826121b4565b612a938185612a75565b9350612aa38185602086016121ce565b80840191505092915050565b5f612aba8285612a7f565b9150612ac68284612a7f565b91508190509392505050565b5f819050815f5260205f209050919050565b5f6020601f8301049050919050565b5f82821b905092915050565b5f60088302612b2e7fffffffffffffffffffffffffffffffffffffffffffffffffffffffffffffffff82612af3565b612b388683612af3565b95508019841693508086168417925050509392505050565b5f819050919050565b5f612b73612b6e612b698461225e565b612b50565b61225e565b9050919050565b5f819050919050565b612b8c83612b59565b612ba0612b9882612b7a565b848454612aff565b825550505050565b5f90565b612bb4612ba8565b612bbf818484612b83565b505050565b5b81811015612be257612bd75f82612bac565b600181019050612bc5565b5050565b601f821115612c2757612bf881612ad2565b612c0184612ae4565b81016020851015612c10578190505b612c24612c1c85612ae4565b830182612bc4565b50505b505050565b5f82821c905092915050565b5f612c475f1984600802612c2c565b1980831691505092915050565b5f612c5f8383612c38565b9150826002028217905092915050565b612c78826121b4565b67ffffffffffffffff811115612c9157612c90612566565b5b612c9b825461286d565b612ca6828285612be6565b5f60209050601f831160018114612cd7575f8415612cc5578287015190505b612ccf8582612c54565b865550612d36565b601f198416612ce586612ad2565b5f5b82811015612d0c57848901518255600182019150602085019450602081019050612ce7565b86831015612d295784890151612d25601f891682612c38565b8355505b6001600288020188555050505b505050505050565b5f612d488261225e565b9150612d538361225e565b9250828203905081811115612d6b57612d6a612926565b5b92915050565b7f4e487b71000000000000000000000000000000000000000000000000000000005f52603160045260245ffd5b7f4e487b71000000000000000000000000000000000000000000000000000000005f52601260045260245ffdfea2646970667358221220c73af79f5b2add2147dac15fdd6f001b747f981c7eeb3299782a02cadc2d8fdf64736f6c63430008150033",
  "immutableReferences": {},
  "source": "// SPDX-License-Identifier: MIT\npragma solidity >=0.4.22 <0.9.0;\n\nimport \"@openzeppelin/contracts/token/ERC721/extensions/ERC721URIStorage.sol\";\nimport \"@openzeppelin/contracts/token/ERC721/extensions/ERC721Enumerable.sol\";\nimport \"@openzeppelin/contracts/access/Ownable.sol\";\n\ncontract KYSNFT is ERC721Enumerable, ERC721URIStorage, Ownable {\n    constructor(\n        address initialOwner\n    ) ERC721(\"In My Sleep Easter Eggs\", \"IMS\") Ownable(initialOwner) {}\n\n    function mint(\n        address to,\n        string memory _tokenURI\n    ) public onlyOwner returns (uint256) {\n        uint256 newTokenId = totalSupply();\n        _mint(to, newTokenId);\n        _setTokenURI(newTokenId, _tokenURI);\n\n        return newTokenId;\n    }\n\n    function burn(uint256 tokenId) internal {\n        _burn(tokenId);\n        _setTokenURI(tokenId, \"\");\n    }\n\n    function tokenURI(\n        uint256 tokenId\n    ) public view override(ERC721, ERC721URIStorage) returns (string memory) {\n        return super.tokenURI(tokenId);\n    }\n\n    function tokensOfOwner(\n        address owner\n    ) public view returns (uint256[] memory) {\n        uint256 tokenCount = balanceOf(owner);\n        uint256[] memory tokenIds = new uint256[](tokenCount);\n\n        for (uint256 i = 0; i < tokenCount; i++) {\n            tokenIds[i] = tokenOfOwnerByIndex(owner, i);\n        }\n\n        return tokenIds;\n    }\n\n    function supportsInterface(\n        bytes4 interfaceId\n    ) public view override(ERC721Enumerable, ERC721URIStorage) returns (bool) {\n        return super.supportsInterface(interfaceId);\n    }\n\n    function _increaseBalance(\n        address account,\n        uint128 value\n    ) internal override(ERC721, ERC721Enumerable) {\n        super._increaseBalance(account, value);\n    }\n\n    function _update(\n        address to,\n        uint256 tokenId,\n        address auth\n    ) internal override(ERC721, ERC721Enumerable) returns (address) {\n        return super._update(to, tokenId, auth);\n    }\n}\n",
  "sourcePath": "C:\\Users\\SSAFY\\Desktop\\\\S11P21E107\\solidity-contracts\\contracts\\KYSNFT.sol",
  "compiler": {
    "name": "solc",
    "version": "0.8.21+commit.d9974bed.Emscripten.clang"
  },
  "schemaVersion": "3.4.16",
  "updatedAt": "2024-09-06T08:50:26.885Z",
  "devdoc": {
    "errors": {
      "ERC721EnumerableForbiddenBatchMint()": [
        {
          "details": "Batch mint is not allowed."
        }
      ],
      "ERC721IncorrectOwner(address,uint256,address)": [
        {
          "details": "Indicates an error related to the ownership over a particular token. Used in transfers.",
          "params": {
            "owner": "Address of the current owner of a token.",
            "sender": "Address whose tokens are being transferred.",
            "tokenId": "Identifier number of a token."
          }
        }
      ],
      "ERC721InsufficientApproval(address,uint256)": [
        {
          "details": "Indicates a failure with the `operator`s approval. Used in transfers.",
          "params": {
            "operator": "Address that may be allowed to operate on tokens without being their owner.",
            "tokenId": "Identifier number of a token."
          }
        }
      ],
      "ERC721InvalidApprover(address)": [
        {
          "details": "Indicates a failure with the `approver` of a token to be approved. Used in approvals.",
          "params": {
            "approver": "Address initiating an approval operation."
          }
        }
      ],
      "ERC721InvalidOperator(address)": [
        {
          "details": "Indicates a failure with the `operator` to be approved. Used in approvals.",
          "params": {
            "operator": "Address that may be allowed to operate on tokens without being their owner."
          }
        }
      ],
      "ERC721InvalidOwner(address)": [
        {
          "details": "Indicates that an address can't be an owner. For example, `address(0)` is a forbidden owner in EIP-20. Used in balance queries.",
          "params": {
            "owner": "Address of the current owner of a token."
          }
        }
      ],
      "ERC721InvalidReceiver(address)": [
        {
          "details": "Indicates a failure with the token `receiver`. Used in transfers.",
          "params": {
            "receiver": "Address to which tokens are being transferred."
          }
        }
      ],
      "ERC721InvalidSender(address)": [
        {
          "details": "Indicates a failure with the token `sender`. Used in transfers.",
          "params": {
            "sender": "Address whose tokens are being transferred."
          }
        }
      ],
      "ERC721NonexistentToken(uint256)": [
        {
          "details": "Indicates a `tokenId` whose `owner` is the zero address.",
          "params": {
            "tokenId": "Identifier number of a token."
          }
        }
      ],
      "ERC721OutOfBoundsIndex(address,uint256)": [
        {
          "details": "An `owner`'s token query was out of bounds for `index`. NOTE: The owner being `address(0)` indicates a global out of bounds index."
        }
      ],
      "OwnableInvalidOwner(address)": [
        {
          "details": "The owner is not a valid owner account. (eg. `address(0)`)"
        }
      ],
      "OwnableUnauthorizedAccount(address)": [
        {
          "details": "The caller account is not authorized to perform an operation."
        }
      ]
    },
    "events": {
      "Approval(address,address,uint256)": {
        "details": "Emitted when `owner` enables `approved` to manage the `tokenId` token."
      },
      "ApprovalForAll(address,address,bool)": {
        "details": "Emitted when `owner` enables or disables (`approved`) `operator` to manage all of its assets."
      },
      "BatchMetadataUpdate(uint256,uint256)": {
        "details": "This event emits when the metadata of a range of tokens is changed. So that the third-party platforms such as NFT market could timely update the images and related attributes of the NFTs."
      },
      "MetadataUpdate(uint256)": {
        "details": "This event emits when the metadata of a token is changed. So that the third-party platforms such as NFT market could timely update the images and related attributes of the NFT."
      },
      "Transfer(address,address,uint256)": {
        "details": "Emitted when `tokenId` token is transferred from `from` to `to`."
      }
    },
    "kind": "dev",
    "methods": {
      "approve(address,uint256)": {
        "details": "See {IERC721-approve}."
      },
      "balanceOf(address)": {
        "details": "See {IERC721-balanceOf}."
      },
      "getApproved(uint256)": {
        "details": "See {IERC721-getApproved}."
      },
      "isApprovedForAll(address,address)": {
        "details": "See {IERC721-isApprovedForAll}."
      },
      "name()": {
        "details": "See {IERC721Metadata-name}."
      },
      "owner()": {
        "details": "Returns the address of the current owner."
      },
      "ownerOf(uint256)": {
        "details": "See {IERC721-ownerOf}."
      },
      "renounceOwnership()": {
        "details": "Leaves the contract without owner. It will not be possible to call `onlyOwner` functions. Can only be called by the current owner. NOTE: Renouncing ownership will leave the contract without an owner, thereby disabling any functionality that is only available to the owner."
      },
      "safeTransferFrom(address,address,uint256)": {
        "details": "See {IERC721-safeTransferFrom}."
      },
      "safeTransferFrom(address,address,uint256,bytes)": {
        "details": "See {IERC721-safeTransferFrom}."
      },
      "setApprovalForAll(address,bool)": {
        "details": "See {IERC721-setApprovalForAll}."
      },
      "symbol()": {
        "details": "See {IERC721Metadata-symbol}."
      },
      "tokenByIndex(uint256)": {
        "details": "See {IERC721Enumerable-tokenByIndex}."
      },
      "tokenOfOwnerByIndex(address,uint256)": {
        "details": "See {IERC721Enumerable-tokenOfOwnerByIndex}."
      },
      "totalSupply()": {
        "details": "See {IERC721Enumerable-totalSupply}."
      },
      "transferFrom(address,address,uint256)": {
        "details": "See {IERC721-transferFrom}."
      },
      "transferOwnership(address)": {
        "details": "Transfers ownership of the contract to a new account (`newOwner`). Can only be called by the current owner."
      }
    },
    "version": 1
  },
  "userdoc": {
    "kind": "user",
    "methods": {},
    "version": 1
  }
}